{
  "_format": "hh-sol-artifact-1",
  "contractName": "LuxfiFeeDistributor",
  "sourceName": "contracts/LuxfiFeeDistributor.sol",
  "abi": [
    {
      "inputs": [
        {
          "internalType": "address",
          "name": "_luxfiToken",
          "type": "address"
        },
        {
          "internalType": "address",
          "name": "_usdtToken",
          "type": "address"
        },
        {
          "internalType": "address",
          "name": "_pancakeRouter",
          "type": "address"
        },
        {
          "internalType": "address",
          "name": "_treasuryWallet",
          "type": "address"
        },
        {
          "internalType": "address",
          "name": "_aiMissionPool",
          "type": "address"
        },
        {
          "internalType": "address",
          "name": "_loyaltyPool",
          "type": "address"
        },
        {
          "internalType": "address",
          "name": "_stakingPool",
          "type": "address"
        }
      ],
      "stateMutability": "nonpayable",
      "type": "constructor"
    },
    {
      "inputs": [],
      "name": "EnforcedPause",
      "type": "error"
    },
    {
      "inputs": [],
      "name": "ExpectedPause",
      "type": "error"
    },
    {
      "inputs": [
        {
          "internalType": "address",
          "name": "owner",
          "type": "address"
        }
      ],
      "name": "OwnableInvalidOwner",
      "type": "error"
    },
    {
      "inputs": [
        {
          "internalType": "address",
          "name": "account",
          "type": "address"
        }
      ],
      "name": "OwnableUnauthorizedAccount",
      "type": "error"
    },
    {
      "inputs": [],
      "name": "ReentrancyGuardReentrantCall",
      "type": "error"
    },
    {
      "anonymous": false,
      "inputs": [
        {
          "indexed": false,
          "internalType": "uint256",
          "name": "amount",
          "type": "uint256"
        }
      ],
      "name": "AIMissionFunded",
      "type": "event"
    },
    {
      "anonymous": false,
      "inputs": [
        {
          "indexed": false,
          "internalType": "uint256",
          "name": "bnbUsed",
          "type": "uint256"
        },
        {
          "indexed": false,
          "internalType": "uint256",
          "name": "luxfiBurned",
          "type": "uint256"
        }
      ],
      "name": "BuybackAndBurn",
      "type": "event"
    },
    {
      "anonymous": false,
      "inputs": [
        {
          "indexed": false,
          "internalType": "uint256",
          "name": "amount",
          "type": "uint256"
        },
        {
          "indexed": false,
          "internalType": "string",
          "name": "source",
          "type": "string"
        }
      ],
      "name": "FeesReceived",
      "type": "event"
    },
    {
      "anonymous": false,
      "inputs": [
        {
          "indexed": false,
          "internalType": "uint256",
          "name": "amount",
          "type": "uint256"
        }
      ],
      "name": "LoyaltyPoolFunded",
      "type": "event"
    },
    {
      "anonymous": false,
      "inputs": [
        {
          "indexed": true,
          "internalType": "address",
          "name": "previousOwner",
          "type": "address"
        },
        {
          "indexed": true,
          "internalType": "address",
          "name": "newOwner",
          "type": "address"
        }
      ],
      "name": "OwnershipTransferred",
      "type": "event"
    },
    {
      "anonymous": false,
      "inputs": [
        {
          "indexed": false,
          "internalType": "address",
          "name": "account",
          "type": "address"
        }
      ],
      "name": "Paused",
      "type": "event"
    },
    {
      "anonymous": false,
      "inputs": [
        {
          "indexed": false,
          "internalType": "uint256",
          "name": "staker",
          "type": "uint256"
        },
        {
          "indexed": false,
          "internalType": "uint256",
          "name": "burn",
          "type": "uint256"
        },
        {
          "indexed": false,
          "internalType": "uint256",
          "name": "treasury",
          "type": "uint256"
        },
        {
          "indexed": false,
          "internalType": "uint256",
          "name": "ai",
          "type": "uint256"
        },
        {
          "indexed": false,
          "internalType": "uint256",
          "name": "loyalty",
          "type": "uint256"
        }
      ],
      "name": "SplitUpdated",
      "type": "event"
    },
    {
      "anonymous": false,
      "inputs": [
        {
          "indexed": true,
          "internalType": "address",
          "name": "staker",
          "type": "address"
        },
        {
          "indexed": false,
          "internalType": "uint256",
          "name": "amount",
          "type": "uint256"
        }
      ],
      "name": "StakerRegistered",
      "type": "event"
    },
    {
      "anonymous": false,
      "inputs": [
        {
          "indexed": true,
          "internalType": "address",
          "name": "staker",
          "type": "address"
        }
      ],
      "name": "StakerUnregistered",
      "type": "event"
    },
    {
      "anonymous": false,
      "inputs": [
        {
          "indexed": false,
          "internalType": "address",
          "name": "account",
          "type": "address"
        }
      ],
      "name": "Unpaused",
      "type": "event"
    },
    {
      "anonymous": false,
      "inputs": [
        {
          "indexed": false,
          "internalType": "address",
          "name": "sender",
          "type": "address"
        },
        {
          "indexed": false,
          "internalType": "bool",
          "name": "status",
          "type": "bool"
        }
      ],
      "name": "WhitelistedSenderUpdated",
      "type": "event"
    },
    {
      "anonymous": false,
      "inputs": [
        {
          "indexed": true,
          "internalType": "address",
          "name": "staker",
          "type": "address"
        },
        {
          "indexed": false,
          "internalType": "uint256",
          "name": "amount",
          "type": "uint256"
        }
      ],
      "name": "YieldClaimed",
      "type": "event"
    },
    {
      "anonymous": false,
      "inputs": [
        {
          "indexed": false,
          "internalType": "uint256",
          "name": "totalAmount",
          "type": "uint256"
        },
        {
          "indexed": false,
          "internalType": "uint256",
          "name": "stakerCount",
          "type": "uint256"
        }
      ],
      "name": "YieldDistributed",
      "type": "event"
    },
    {
      "inputs": [],
      "name": "DISTRIBUTION_INTERVAL",
      "outputs": [
        {
          "internalType": "uint256",
          "name": "",
          "type": "uint256"
        }
      ],
      "stateMutability": "view",
      "type": "function"
    },
    {
      "inputs": [],
      "name": "TIER2_DAYS",
      "outputs": [
        {
          "internalType": "uint256",
          "name": "",
          "type": "uint256"
        }
      ],
      "stateMutability": "view",
      "type": "function"
    },
    {
      "inputs": [],
      "name": "TIER3_DAYS",
      "outputs": [
        {
          "internalType": "uint256",
          "name": "",
          "type": "uint256"
        }
      ],
      "stateMutability": "view",
      "type": "function"
    },
    {
      "inputs": [],
      "name": "TIER4_DAYS",
      "outputs": [
        {
          "internalType": "uint256",
          "name": "",
          "type": "uint256"
        }
      ],
      "stateMutability": "view",
      "type": "function"
    },
    {
      "inputs": [],
      "name": "TIER5_DAYS",
      "outputs": [
        {
          "internalType": "uint256",
          "name": "",
          "type": "uint256"
        }
      ],
      "stateMutability": "view",
      "type": "function"
    },
    {
      "inputs": [],
      "name": "TOTAL_BPS",
      "outputs": [
        {
          "internalType": "uint256",
          "name": "",
          "type": "uint256"
        }
      ],
      "stateMutability": "view",
      "type": "function"
    },
    {
      "inputs": [],
      "name": "aiMissionPool",
      "outputs": [
        {
          "internalType": "address",
          "name": "",
          "type": "address"
        }
      ],
      "stateMutability": "view",
      "type": "function"
    },
    {
      "inputs": [],
      "name": "aiMissionShareBps",
      "outputs": [
        {
          "internalType": "uint256",
          "name": "",
          "type": "uint256"
        }
      ],
      "stateMutability": "view",
      "type": "function"
    },
    {
      "inputs": [],
      "name": "burnShareBps",
      "outputs": [
        {
          "internalType": "uint256",
          "name": "",
          "type": "uint256"
        }
      ],
      "stateMutability": "view",
      "type": "function"
    },
    {
      "inputs": [
        {
          "internalType": "address",
          "name": "staker",
          "type": "address"
        },
        {
          "internalType": "uint256",
          "name": "amount",
          "type": "uint256"
        }
      ],
      "name": "claimYield",
      "outputs": [],
      "stateMutability": "nonpayable",
      "type": "function"
    },
    {
      "inputs": [],
      "name": "distributeWeeklyYield",
      "outputs": [],
      "stateMutability": "nonpayable",
      "type": "function"
    },
    {
      "inputs": [],
      "name": "getDistributionStats",
      "outputs": [
        {
          "internalType": "uint256",
          "name": "",
          "type": "uint256"
        },
        {
          "internalType": "uint256",
          "name": "",
          "type": "uint256"
        },
        {
          "internalType": "uint256",
          "name": "",
          "type": "uint256"
        },
        {
          "internalType": "uint256",
          "name": "",
          "type": "uint256"
        },
        {
          "internalType": "uint256",
          "name": "",
          "type": "uint256"
        },
        {
          "internalType": "uint256",
          "name": "",
          "type": "uint256"
        },
        {
          "internalType": "uint256",
          "name": "",
          "type": "uint256"
        },
        {
          "internalType": "uint256",
          "name": "",
          "type": "uint256"
        },
        {
          "internalType": "uint256",
          "name": "",
          "type": "uint256"
        }
      ],
      "stateMutability": "view",
      "type": "function"
    },
    {
      "inputs": [
        {
          "internalType": "address",
          "name": "staker",
          "type": "address"
        }
      ],
      "name": "getLoyaltyMultiplier",
      "outputs": [
        {
          "internalType": "uint256",
          "name": "",
          "type": "uint256"
        }
      ],
      "stateMutability": "view",
      "type": "function"
    },
    {
      "inputs": [
        {
          "internalType": "address",
          "name": "",
          "type": "address"
        }
      ],
      "name": "isStaker",
      "outputs": [
        {
          "internalType": "bool",
          "name": "",
          "type": "bool"
        }
      ],
      "stateMutability": "view",
      "type": "function"
    },
    {
      "inputs": [],
      "name": "lastDistributionTime",
      "outputs": [
        {
          "internalType": "uint256",
          "name": "",
          "type": "uint256"
        }
      ],
      "stateMutability": "view",
      "type": "function"
    },
    {
      "inputs": [],
      "name": "loyaltyPool",
      "outputs": [
        {
          "internalType": "address",
          "name": "",
          "type": "address"
        }
      ],
      "stateMutability": "view",
      "type": "function"
    },
    {
      "inputs": [],
      "name": "loyaltyShareBps",
      "outputs": [
        {
          "internalType": "uint256",
          "name": "",
          "type": "uint256"
        }
      ],
      "stateMutability": "view",
      "type": "function"
    },
    {
      "inputs": [],
      "name": "luxfiToken",
      "outputs": [
        {
          "internalType": "contract ILuxfiToken",
          "name": "",
          "type": "address"
        }
      ],
      "stateMutability": "view",
      "type": "function"
    },
    {
      "inputs": [],
      "name": "minBurnThreshold",
      "outputs": [
        {
          "internalType": "uint256",
          "name": "",
          "type": "uint256"
        }
      ],
      "stateMutability": "view",
      "type": "function"
    },
    {
      "inputs": [],
      "name": "minBuybackSlippageBps",
      "outputs": [
        {
          "internalType": "uint256",
          "name": "",
          "type": "uint256"
        }
      ],
      "stateMutability": "view",
      "type": "function"
    },
    {
      "inputs": [],
      "name": "owner",
      "outputs": [
        {
          "internalType": "address",
          "name": "",
          "type": "address"
        }
      ],
      "stateMutability": "view",
      "type": "function"
    },
    {
      "inputs": [],
      "name": "pancakeRouter",
      "outputs": [
        {
          "internalType": "contract IPancakeRouter",
          "name": "",
          "type": "address"
        }
      ],
      "stateMutability": "view",
      "type": "function"
    },
    {
      "inputs": [],
      "name": "pause",
      "outputs": [],
      "stateMutability": "nonpayable",
      "type": "function"
    },
    {
      "inputs": [],
      "name": "paused",
      "outputs": [
        {
          "internalType": "bool",
          "name": "",
          "type": "bool"
        }
      ],
      "stateMutability": "view",
      "type": "function"
    },
    {
      "inputs": [],
      "name": "pendingBurnAmount",
      "outputs": [
        {
          "internalType": "uint256",
          "name": "",
          "type": "uint256"
        }
      ],
      "stateMutability": "view",
      "type": "function"
    },
    {
      "inputs": [],
      "name": "pendingStakerYield",
      "outputs": [
        {
          "internalType": "uint256",
          "name": "",
          "type": "uint256"
        }
      ],
      "stateMutability": "view",
      "type": "function"
    },
    {
      "inputs": [
        {
          "internalType": "address",
          "name": "",
          "type": "address"
        }
      ],
      "name": "pendingYield",
      "outputs": [
        {
          "internalType": "uint256",
          "name": "",
          "type": "uint256"
        }
      ],
      "stateMutability": "view",
      "type": "function"
    },
    {
      "inputs": [
        {
          "internalType": "string",
          "name": "source",
          "type": "string"
        }
      ],
      "name": "receiveFees",
      "outputs": [],
      "stateMutability": "payable",
      "type": "function"
    },
    {
      "inputs": [
        {
          "internalType": "address",
          "name": "staker",
          "type": "address"
        },
        {
          "internalType": "uint256",
          "name": "amount",
          "type": "uint256"
        }
      ],
      "name": "registerStaker",
      "outputs": [],
      "stateMutability": "nonpayable",
      "type": "function"
    },
    {
      "inputs": [],
      "name": "renounceOwnership",
      "outputs": [],
      "stateMutability": "nonpayable",
      "type": "function"
    },
    {
      "inputs": [
        {
          "internalType": "uint256",
          "name": "threshold",
          "type": "uint256"
        }
      ],
      "name": "setMinBurnThreshold",
      "outputs": [],
      "stateMutability": "nonpayable",
      "type": "function"
    },
    {
      "inputs": [
        {
          "internalType": "uint256",
          "name": "bps",
          "type": "uint256"
        }
      ],
      "name": "setMinBuybackSlippage",
      "outputs": [],
      "stateMutability": "nonpayable",
      "type": "function"
    },
    {
      "inputs": [
        {
          "internalType": "address",
          "name": "sender",
          "type": "address"
        },
        {
          "internalType": "bool",
          "name": "status",
          "type": "bool"
        }
      ],
      "name": "setWhitelistedSender",
      "outputs": [],
      "stateMutability": "nonpayable",
      "type": "function"
    },
    {
      "inputs": [
        {
          "internalType": "address",
          "name": "",
          "type": "address"
        }
      ],
      "name": "stakeSince",
      "outputs": [
        {
          "internalType": "uint256",
          "name": "",
          "type": "uint256"
        }
      ],
      "stateMutability": "view",
      "type": "function"
    },
    {
      "inputs": [
        {
          "internalType": "address",
          "name": "",
          "type": "address"
        }
      ],
      "name": "stakedAmount",
      "outputs": [
        {
          "internalType": "uint256",
          "name": "",
          "type": "uint256"
        }
      ],
      "stateMutability": "view",
      "type": "function"
    },
    {
      "inputs": [
        {
          "internalType": "uint256",
          "name": "",
          "type": "uint256"
        }
      ],
      "name": "stakerList",
      "outputs": [
        {
          "internalType": "address",
          "name": "",
          "type": "address"
        }
      ],
      "stateMutability": "view",
      "type": "function"
    },
    {
      "inputs": [],
      "name": "stakerShareBps",
      "outputs": [
        {
          "internalType": "uint256",
          "name": "",
          "type": "uint256"
        }
      ],
      "stateMutability": "view",
      "type": "function"
    },
    {
      "inputs": [],
      "name": "stakingPool",
      "outputs": [
        {
          "internalType": "address",
          "name": "",
          "type": "address"
        }
      ],
      "stateMutability": "view",
      "type": "function"
    },
    {
      "inputs": [],
      "name": "totalAIMissionFees",
      "outputs": [
        {
          "internalType": "uint256",
          "name": "",
          "type": "uint256"
        }
      ],
      "stateMutability": "view",
      "type": "function"
    },
    {
      "inputs": [],
      "name": "totalBurned",
      "outputs": [
        {
          "internalType": "uint256",
          "name": "",
          "type": "uint256"
        }
      ],
      "stateMutability": "view",
      "type": "function"
    },
    {
      "inputs": [],
      "name": "totalFeesReceived",
      "outputs": [
        {
          "internalType": "uint256",
          "name": "",
          "type": "uint256"
        }
      ],
      "stateMutability": "view",
      "type": "function"
    },
    {
      "inputs": [],
      "name": "totalLoyaltyFees",
      "outputs": [
        {
          "internalType": "uint256",
          "name": "",
          "type": "uint256"
        }
      ],
      "stateMutability": "view",
      "type": "function"
    },
    {
      "inputs": [],
      "name": "totalStaked",
      "outputs": [
        {
          "internalType": "uint256",
          "name": "",
          "type": "uint256"
        }
      ],
      "stateMutability": "view",
      "type": "function"
    },
    {
      "inputs": [],
      "name": "totalStakerYield",
      "outputs": [
        {
          "internalType": "uint256",
          "name": "",
          "type": "uint256"
        }
      ],
      "stateMutability": "view",
      "type": "function"
    },
    {
      "inputs": [],
      "name": "totalTreasuryFees",
      "outputs": [
        {
          "internalType": "uint256",
          "name": "",
          "type": "uint256"
        }
      ],
      "stateMutability": "view",
      "type": "function"
    },
    {
      "inputs": [
        {
          "internalType": "address",
          "name": "",
          "type": "address"
        }
      ],
      "name": "totalYieldClaimed",
      "outputs": [
        {
          "internalType": "uint256",
          "name": "",
          "type": "uint256"
        }
      ],
      "stateMutability": "view",
      "type": "function"
    },
    {
      "inputs": [
        {
          "internalType": "address",
          "name": "newOwner",
          "type": "address"
        }
      ],
      "name": "transferOwnership",
      "outputs": [],
      "stateMutability": "nonpayable",
      "type": "function"
    },
    {
      "inputs": [],
      "name": "treasuryShareBps",
      "outputs": [
        {
          "internalType": "uint256",
          "name": "",
          "type": "uint256"
        }
      ],
      "stateMutability": "view",
      "type": "function"
    },
    {
      "inputs": [],
      "name": "treasuryWallet",
      "outputs": [
        {
          "internalType": "address",
          "name": "",
          "type": "address"
        }
      ],
      "stateMutability": "view",
      "type": "function"
    },
    {
      "inputs": [],
      "name": "triggerBuybackAndBurn",
      "outputs": [],
      "stateMutability": "nonpayable",
      "type": "function"
    },
    {
      "inputs": [],
      "name": "unpause",
      "outputs": [],
      "stateMutability": "nonpayable",
      "type": "function"
    },
    {
      "inputs": [
        {
          "internalType": "address",
          "name": "staker",
          "type": "address"
        }
      ],
      "name": "unregisterStaker",
      "outputs": [],
      "stateMutability": "nonpayable",
      "type": "function"
    },
    {
      "inputs": [
        {
          "internalType": "address",
          "name": "_treasury",
          "type": "address"
        },
        {
          "internalType": "address",
          "name": "_aiPool",
          "type": "address"
        },
        {
          "internalType": "address",
          "name": "_loyaltyPoolAddr",
          "type": "address"
        },
        {
          "internalType": "address",
          "name": "_stakingPoolAddr",
          "type": "address"
        }
      ],
      "name": "updateAddresses",
      "outputs": [],
      "stateMutability": "nonpayable",
      "type": "function"
    },
    {
      "inputs": [
        {
          "internalType": "uint256",
          "name": "_s",
          "type": "uint256"
        },
        {
          "internalType": "uint256",
          "name": "_b",
          "type": "uint256"
        },
        {
          "internalType": "uint256",
          "name": "_t",
          "type": "uint256"
        },
        {
          "internalType": "uint256",
          "name": "_a",
          "type": "uint256"
        },
        {
          "internalType": "uint256",
          "name": "_l",
          "type": "uint256"
        }
      ],
      "name": "updateSplit",
      "outputs": [],
      "stateMutability": "nonpayable",
      "type": "function"
    },
    {
      "inputs": [],
      "name": "usdtToken",
      "outputs": [
        {
          "internalType": "contract IERC20",
          "name": "",
          "type": "address"
        }
      ],
      "stateMutability": "view",
      "type": "function"
    },
    {
      "inputs": [
        {
          "internalType": "address",
          "name": "",
          "type": "address"
        }
      ],
      "name": "whitelistedSenders",
      "outputs": [
        {
          "internalType": "bool",
          "name": "",
          "type": "bool"
        }
      ],
      "stateMutability": "view",
      "type": "function"
    },
    {
      "stateMutability": "payable",
      "type": "receive"
    }
  ],
  "bytecode": "0x608034620003a757601f6200258538819003918201601f191683019291906001600160401b03841183851017620003ac578160e09284926040968752833981010312620003a7576200005181620003c2565b60209062000061828401620003c2565b6200006e858501620003c2565b936200007d60608201620003c2565b906200008c60808201620003c2565b620000a860c0620000a060a08501620003c2565b9301620003c2565b9233156200038f5760008054336001600160a01b0319808316821784558c51939b90989093926001600160a01b03929083167f8be0079c531659141344cd1fd0a4f28419497f9722a3daafe3b4186f6b6457e08e80a360017f9b779b17422d0df92223018b32b4d1fa46e071723d6817e2486d003becc55f00558160049a610bb88c556109c46005556107d06006556105dc6007556103e86008556101f4600955662386f26fc10000601655169283156200035e575081169283156200032c578116938415620002f8578116948515620002c25781169586156200028d5781169687156200024a571697881562000207575091600e979593918795938c9b9a98600154161760015585600254161760025584600354161760035583600a541617600a5582600b541617600b5581600c541617600c55600d541617600d55426017553383525220600160ff19825416179055516121ad9081620003d88239f35b8b5162461bcd60e51b81529081018a9052601460248201527f496e76616c6964207374616b696e6720706f6f6c0000000000000000000000006044820152606490fd5b8c5162461bcd60e51b8152808b018c9052601460248201527f496e76616c6964206c6f79616c747920706f6f6c0000000000000000000000006044820152606490fd5b8c5162461bcd60e51b8152808b018c9052600f60248201526e125b9d985b1a59081052481c1bdbdb608a1b6044820152606490fd5b8c5162461bcd60e51b8152808b018c9052601060248201526f496e76616c696420747265617375727960801b6044820152606490fd5b8c5162461bcd60e51b8152808b018c9052600e60248201526d24b73b30b634b2103937baba32b960911b6044820152606490fd5b8c5162461bcd60e51b8152808b018c9052600c60248201526b125b9d985b1a59081554d11560a21b6044820152606490fd5b62461bcd60e51b81528a81018c9052600d60248201526c24b73b30b634b2103a37b5b2b760991b6044820152606490fd5b8851631e4fbdf760e01b815260006004820152602490fd5b600080fd5b634e487b7160e01b600052604160045260246000fd5b51906001600160a01b0382168203620003a75756fe608060408181526004918236101561006b575b50361561001e57600080fd5b8051908082019082821067ffffffffffffffff83111761005657610054935052600381526221272160e91b602082015234611690565b005b604184634e487b7160e01b6000525260246000fd5b600090813560e01c90816304746f53146114bb5750806306ac7aed14611483578063076bad1d1461146157806308b26b75146114435780630c56ae3b1461141a5780631869ebda146112365780631e0c06e61461120957806323448eb2146111ea57806324b97c461461116357806325e8649c146111465780632706570914611127578063272efc69146110e9578063299238381461106857806330654a4714611049578063334673511461102a578063348e50c614610fe957806338e3030214610fca5780633a744b8314610eff5780633be034c714610d3f5780633de2271c14610d205780633f4ba83a14610cb25780634626402b14610c8957806353dfb98314610c6b5780635c975abb14610c465780635d684f4214610be15780636f1e853314610ba3578063715018a614610b4957806373b40ca714610a2857806375b1735014610a09578063817b1cd2146109ea5780638456cb59146109775780638da5cb5b1461094f578063918c21ed146109305780639a1bdbd3146109115780639ac73e6a1461077b5780639bdbe0b3146107525780639fbaf3de14610733578063a483d1ac14610714578063a98ad46c146106eb578063abcbd2b9146106ce578063adc0ea63146106a5578063ba252d8d14610641578063bb61b79414610625578063bf2fda4d146105ed578063c21ebd07146105c4578063c7bf19801461058c578063c88917841461056d578063ca5d381314610544578063d3cd52bc14610527578063d89135cd14610508578063e19a1a97146104ec578063e1d64145146104a4578063ea280be314610485578063f2fde38b146103fa578063f48b2fb9146103175763f9931855036100125790346103135760203660031901126103135760209181906001600160a01b036103036114d7565b1681526019845220549051908152f35b5080fd5b50346103f75760803660031901126103f7576103316114d7565b6001600160a01b03602435818116908190036103f357604435918083168093036103ef57606435938185168095036103eb5761036b61153f565b16806103d2575b50806103b9575b50806103a0575b508061038a575080f35b6001600160601b0360a01b600d541617600d5580f35b6001600160601b0360a01b600c541617600c5582610380565b6001600160601b0360a01b600b541617600b5583610379565b6001600160601b0360a01b600a541617600a5584610372565b8580fd5b8480fd5b8380fd5b80fd5b509134610481576020366003190112610481576104156114d7565b9061041e61153f565b6001600160a01b0391821692831561046b57505082546001600160a01b0319811683178455167f8be0079c531659141344cd1fd0a4f28419497f9722a3daafe3b4186f6b6457e08380a380f35b51631e4fbdf760e01b8152908101849052602490fd5b8280fd5b5090346103135781600319360112610313576020906012549051908152f35b50346103f757806003193601126103f7576104bd6115db565b6104c5611e4a565b60017f9b779b17422d0df92223018b32b4d1fa46e071723d6817e2486d003becc55f005580f35b50903461031357816003193601126103135760209051605a8152f35b5090346103135781600319360112610313576020906010549051908152f35b509034610313578160031936011261031357602090516127108152f35b509034610313578160031936011261031357600c5490516001600160a01b039091168152602090f35b5090346103135781600319360112610313576020906015549051908152f35b5090346103135760203660031901126103135760209181906001600160a01b036105b46114d7565b168152601b845220549051908152f35b50903461031357816003193601126103135760035490516001600160a01b039091168152602090f35b5090346103135760203660031901126103135760209181906001600160a01b036106156114d7565b168152601a845220549051908152f35b5090346103135781600319360112610313576020905160b48152f35b5091903461048157826003193601126104815761065c61153f565b60155415610670578261066d611a31565b80f35b906020606492519162461bcd60e51b8352820152600f60248201526e2737ba3434b733903a3790313ab93760891b6044820152fd5b50903461031357816003193601126103135760015490516001600160a01b039091168152602090f35b5090346103135781600319360112610313576020905161016d8152f35b50903461031357816003193601126103135760025490516001600160a01b039091168152602090f35b5090346103135781600319360112610313576020906007549051908152f35b509034610313578160031936011261031357602090600f549051908152f35b509034610313578160031936011261031357600b5490516001600160a01b039091168152602090f35b5082346103135760a0366003190112610313578035906024359060443582606435926127106107c2876107bd876107bd886107bd6084359c8d966107bd61153f565b61161d565b036108db576103e88083106108a957861061086f576101f484106108375791878694927f138dd11792dcb523dd33c99a1658ddd9ee20d8de675d8ab87f088ef6921556f59760a0979555806005558260065583600755846008558151958652602086015284015260608301526080820152a180f35b606490602089519162461bcd60e51b835282015260126024820152714d696e203525204149206d697373696f6e7360701b6044820152fd5b606490602089519162461bcd60e51b83528201526014602482015273135a5b880c4c09481cdd185ad95c881e5a595b1960621b6044820152fd5b885162461bcd60e51b8152602081840152600c60248201526b26b4b71018981290313ab93760a11b6044820152606490fd5b606490602089519162461bcd60e51b8352820152601060248201526f04d75737420657175616c2031303030360841b6044820152fd5b5090346103135781600319360112610313576020906013549051908152f35b5090346103135781600319360112610313576020906008549051908152f35b509034610313578160031936011261031357905490516001600160a01b039091168152602090f35b50913461048157826003193601126104815761099161153f565b82549060ff8260a01c166109dc575060ff60a01b1916600160a01b178255513381527f62e78cea01bee320cd4e420270b5ea74000d11b0c9f74754ebdbfc544b05a25890602090a180f35b825163d93c066560e01b8152fd5b509034610313578160031936011261031357602090601d549051908152f35b5090346103135781600319360112610313576020906017549051908152f35b5091602090816003193601126103f357803567ffffffffffffffff918282116103eb57366023830112156103eb57818101359283116103eb5736602484840101116103eb57610a756115db565b338652600e845260ff85872054168015610b36575b15610afa573415610ac8575091818060246104c59695610ab6610aad8a976115bf565b9751978861159d565b82875201838601378301015234611690565b845162461bcd60e51b8152908101849052600c60248201526b139bc81999595cc81cd95b9d60a21b6044820152606490fd5b845162461bcd60e51b815290810184905260166024820152752737ba103bb434ba32b634b9ba32b21039b2b73232b960511b6044820152606490fd5b5085546001600160a01b03163314610a8a565b50346103f757806003193601126103f757610b6261153f565b80546001600160a01b03198116825581906001600160a01b03167f8be0079c531659141344cd1fd0a4f28419497f9722a3daafe3b4186f6b6457e08280a380f35b5090346103135760203660031901126103135760209160ff9082906001600160a01b03610bce6114d7565b168152601f855220541690519015158152f35b50913461048157602036600319011261048157803591610bff61153f565b6107d08311610c1057505060095580f35b906020606492519162461bcd60e51b8352820152601060248201526f4d61782032302520736c69707061676560801b6044820152fd5b50903461031357816003193601126103135760ff6020925460a01c1690519015158152f35b50913461048157826003193601126104815760209250549051908152f35b509034610313578160031936011261031357600a5490516001600160a01b039091168152602090f35b509134610481578260031936011261048157610ccc61153f565b82549060ff8260a01c1615610d12575060ff60a01b19168255513381527f5db9ee0a495bf2e6ff9c91a7834c1ba4fdd244a5e8aa4e537bd38aeae4b073aa90602090a180f35b8251638dfc202b60e01b8152fd5b5090346103135781600319360112610313576020906005549051908152f35b50919034610481578060031936011261048157610d5a6114d7565b600d5460243592916001600160a01b0391829190821633148015610ef3575b610d82906120d5565b16938415610ec1578315610e9057848652601f60205260ff838720541615610df7575b50507f3098340b710c126fa6121bdf68f546d36cd972f2764855f79976cea807af3d389160209160198352808620610dde83825461161d565b9055610dec82601d5461161d565b601d5551908152a280f35b601e549068010000000000000000821015610e7d5750917f3098340b710c126fa6121bdf68f546d36cd972f2764855f79976cea807af3d389391610e4384600160209601601e556114f2565b819291549060031b9188831b921b1916179055848652601f8352808620600160ff19825416179055601a8352428187205591819350610da5565b634e487b7160e01b875260419052602486fd5b606490602084519162461bcd60e51b8352820152600b60248201526a16995c9bc8185b5bdd5b9d60aa1b6044820152fd5b606490602084519162461bcd60e51b8352820152600c60248201526b5a65726f206164647265737360a01b6044820152fd5b50865482163314610d79565b50913461048157602036600319011261048157610f1a6114d7565b600d546001600160a01b03929083163303610f8f575016908183526019602052610f4981842054601d54611653565b601d5581835260196020528281812055601f602052822060ff1981541690557f5ea70053d67dfe0011252da79d84be67550438cc7bc4c91336c156e75a6baa7c8280a280f35b606490602085519162461bcd60e51b8352820152601560248201527413db9b1e481cdd185ada5b99c818dbdb9d1c9858dd605a1b6044820152fd5b5090346103135781600319360112610313576020906014549051908152f35b509134610481576020366003190112610481573591601e548310156103f757506110146020926114f2565b905491519160018060a01b039160031b1c168152f35b5090346103135781600319360112610313576020906016549051908152f35b5090346103135781600319360112610313576020906006549051908152f35b5090346103135780600319360112610313576110826114d7565b906024358015158091036103f3577f7d9ad05240cb5d6ba9ca4bfe56a5e4d30cabd6cbdbe220201e6a2d88bbb9def3926110ba61153f565b60018060a01b031690818552600e60205282852060ff1981541660ff831617905582519182526020820152a180f35b5090346103135760203660031901126103135760209160ff9082906001600160a01b036111146114d7565b168152600e855220541690519015158152f35b5090346103135781600319360112610313576020906009549051908152f35b509034610313578160031936011261031357602090516102da8152f35b50346103f757806003193601126103f757600f549160105490601154601254601354906014549260155494601854966017549862093a808a01809a116111d757506101209a508151998a5260208a01528801526060870152608086015260a085015260c084015260e0830152610100820152f35b634e487b7160e01b815260118c52602490fd5b5090346103135781600319360112610313576020906018549051908152f35b5090346103135760203660031901126103135760209061122f61122a6114d7565b612112565b9051908152f35b5091346104815781600319360112610481576112506114d7565b6024359061125c6115db565b600d546001600160a01b03919082163314801561140e575b61127d906120d5565b82156113d8571692838552602092601b845282828720541061139f5782471061136757848652601b84528186206112b5848254611653565b9055848652601c84528186206112cc84825461161d565b90558580808086895af16112de611660565b50156113345750519081527fc04825ba3f383b602255d2a13065a68e325c65c9e0ed5d031ea2b06f641873af9190a260017f9b779b17422d0df92223018b32b4d1fa46e071723d6817e2486d003becc55f005580f35b83606492519162461bcd60e51b8352820152600f60248201526e151c985b9cd9995c8819985a5b1959608a1b6044820152fd5b83606492519162461bcd60e51b83528201526014602482015273496e73756666696369656e742062616c616e636560601b6044820152fd5b83606492519162461bcd60e51b83528201526015602482015274115e18d959591cc81c195b991a5b99c81e5a595b19605a1b6044820152fd5b845162461bcd60e51b8152602081860152601060248201526f4e6f7468696e6720746f20636c61696d60801b6044820152606490fd5b50855482163314611274565b509034610313578160031936011261031357600d5490516001600160a01b039091168152602090f35b5090346103135781600319360112610313576020905162093a808152f35b5082346103135760203660031901126103135761147c61153f565b3560165580f35b5090346103135760203660031901126103135760209181906001600160a01b036114ab6114d7565b168152601c845220549051908152f35b9050346103135781600319360112610313576020906011548152f35b600435906001600160a01b03821682036114ed57565b600080fd5b601e5481101561152957601e6000527f50bb669a95c7b50b7e8a6f09454034b2b14cf2b85c730dca9a539ca82cb6e3500190600090565b634e487b7160e01b600052603260045260246000fd5b6000546001600160a01b0316330361155357565b60405163118cdaa760e01b8152336004820152602490fd5b6060810190811067ffffffffffffffff82111761158757604052565b634e487b7160e01b600052604160045260246000fd5b90601f8019910116810190811067ffffffffffffffff82111761158757604052565b67ffffffffffffffff811161158757601f01601f191660200190565b7f9b779b17422d0df92223018b32b4d1fa46e071723d6817e2486d003becc55f00600281541461160b5760029055565b604051633ee5aeb560e01b8152600490fd5b9190820180921161162a57565b634e487b7160e01b600052601160045260246000fd5b8181029291811591840414171561162a57565b9190820391821161162a57565b3d1561168b573d90611671826115bf565b9161167f604051938461159d565b82523d6000602084013e565b606090565b919061169e83600f5461161d565b600f556040519280845260209160408386015280519081604087015260005b82811061191457505084606081836000837f39a9569014c3ddfef1a2788ab38daefebff5cfdcf557e73cd32e676a00187977966117619a9b010152601f80199101168101030190a16127109061175c6117888361171c60045485611640565b0495869361175c8661173060055484611640565b049661175c888261174360065487611640565b0497889361175360075488611640565b04998a96611653565b611653565b9361177d601897611773818a5461161d565b895560115461161d565b60115560155461161d565b6015556117978160125461161d565b6012556117a68260135461161d565b6013556117b58360145461161d565b601455806118d2575b50828161185f575b5050806117e9575b50505060155460165411156117df57565b6117e7611a31565b565b7fd32b07f75366c0e0852d8c85619a3877bd2da065fd68c3af0a8976bcaa70a1db9260008080808560018060a01b03600c54165af1611826611660565b501561183d575b50604051908152a13880806117ce565b61184882825461161d565b905561185681601454611653565b6014553861182d565b8160008080807fe5825ecdff87cb0788d82e8e562db2bd58cbf1db535a87f824f750986e44c4539660018060a01b03600b54165af161189c611660565b50156118b1575b604051908152a138826117c6565b6118bc81875461161d565b86556118ca81601354611653565b6013556118a3565b60008080808460018060a01b03600a54165af16118ed611660565b506117be578061190161190b92875461161d565b8655601254611653565b601255386117be565b8181018501518782016060015284016116bd565b9060209081838203126114ed57825167ffffffffffffffff938482116114ed570181601f820112156114ed578051938411611587578360051b90604051946119728584018761159d565b855283808601928201019283116114ed578301905b828210611995575050505090565b81518152908301908301611987565b90815180825260208080930193019160005b8281106119c4575050505090565b83516001600160a01b0316855293810193928101926001016119b6565b8051156115295760200190565b8051600110156115295760400190565b80518210156115295760209160051b010190565b908160209103126114ed57516001600160a01b03811681036114ed5790565b60155490600091826015558260018060a01b038060035416604092835190611a588261156b565b6002825260209285368585013785516315ab88c960e31b808252600494909186818781875afa908115611e315790899695949392918d91611e14575b5088611a9f836119e1565b91169052611ae08c808a600154169384611ab8826119ee565b528d8a51948592839263d06ca61f60e01b84528c84015260249c8d84015260448301906119a4565b0381885afa90918282611df7575b5050611d93575b50885191611b028361156b565b60028352893689850137895190815287818781875afa908115611d89578d91611d5c575b5088611b31846119e1565b91169052611b3e826119ee565b5261012c420192834211611d4a5791611b7b918a8d948b5196879586948593637ff36ab560e01b85528b85015260808c85015260848401906119a4565b90306044840152606483015203925af1899181611d26575b50611bb157505050505050611bac91925060155461161d565b601555565b8051959695600019810191908211611d145790611bcd916119fe565b5193888160015416803b15610313578190858a5180948193630852cd8d60e31b83528b898401525af19081611ce7575b50611cb457604484928a61dead9360015416888b51978896879563a9059cbb60e01b87528601528401525af18015611caa57611c73575b507f0ec3929061cbbbeecb325623e7d5a86c3dae11cb8a22ca45dc0972955657da25949550611c658260105461161d565b6010558351928352820152a1565b8181813d8311611ca3575b611c88818361159d565b81010312611c9f5751801515036103eb5785611c34565b8680fd5b503d611c7e565b85513d89823e3d90fd5b5050507f0ec3929061cbbbeecb325623e7d5a86c3dae11cb8a22ca45dc0972955657da25949550611c658260105461161d565b67ffffffffffffffff819b929b11611d025788529838611bfd565b634e487b7160e01b8252604184528482fd5b634e487b7160e01b8a5260118352838afd5b611d439192503d808c833e611d3b818361159d565b810190611928565b9038611b93565b634e487b7160e01b8c5260118552858cfd5b611d7c9150883d8a11611d82575b611d74818361159d565b810190611a12565b38611b26565b503d611d6a565b8a513d8f823e3d90fd5b80519194506000198201918211611de55790611dae916119fe565b516009549061271091820390828211611dd35790611dcb91611640565b049238611af5565b634e487b7160e01b8e5260118752878efd5b634e487b7160e01b8d5260118652868dfd5b611e0c9293503d8091833e611d3b818361159d565b90388e611aee565b611e2b9150883d8a11611d8257611d74818361159d565b38611a94565b89513d8e823e3d90fd5b600019811461162a5760010190565b60175462093a80810180911161162a5742106120a457601854801561207457601d5415612042576000806018554260175580918192601e9384545b808210611fa057505080159485611f9857835b8554811015611f6057611eaa816114f2565b60018060a01b0391549060031b1c16808652601960209080825289886040928382205415611f5157611ef3611efa9260649288611ee681612112565b92528752858d2054611640565b0489611640565b90611f3d579086611f1995949392049283611f1e575b50505050611e3b565b611e98565b611f3292601b918b5252882091825461161d565b905538808080611f10565b634e487b7160e01b89526012600452602489fd5b505050505050611f1990611e3b565b50945050604091507ffe4996cd48c364c468cee70dd6b9061874ff01b05c5ea49311cbcabd9b9cb615925482519182526020820152a1565b945050505050565b9091611fab836114f2565b9054600391821b1c6001600160a01b039081168752601960208181526040808a2054909291908a9015612032578460649461201f9461202698946120199461202c9b99611ff78f6114f2565b905490891b1c169052528c20549261200e8b6114f2565b9054911b1c16612112565b90611640565b049061161d565b92611e3b565b90611e85565b5050505050509161202c90611e3b565b60405162461bcd60e51b815260206004820152600a6024820152694e6f207374616b65727360b01b6044820152606490fd5b60405162461bcd60e51b8152602060048201526008602482015267139bc81e5a595b1960c21b6044820152606490fd5b60405162461bcd60e51b8152602060048201526009602482015268546f6f206561726c7960b81b6044820152606490fd5b156120dc57565b60405162461bcd60e51b815260206004820152600e60248201526d139bdd08185d5d1a1bdc9a5e995960921b6044820152606490fd5b60018060a01b0316600052601a6020526201518061213560406000205442611653565b046102da8110156121715761016d81101561216b5760b481101561216557605a111561216057606490565b607d90565b50609690565b5060c890565b5060fa9056fea264697066735822122014ca0bb3632f19d7244f13c8aa358afe5b8215d933f4f8214afdb963d296f13964736f6c63430008140033",
  "linkReferences": {},
  "deployedLinkReferences": {}
}