{
  "_format": "hh-sol-artifact-1",
  "contractName": "MaliciousERC20",
  "sourceName": "contracts/mocks/MaliciousERC20.sol",
  "abi": [
    {
      "inputs": [],
      "stateMutability": "nonpayable",
      "type": "constructor"
    },
    {
      "inputs": [
        {
          "internalType": "address",
          "name": "spender",
          "type": "address"
        },
        {
          "internalType": "uint256",
          "name": "allowance",
          "type": "uint256"
        },
        {
          "internalType": "uint256",
          "name": "needed",
          "type": "uint256"
        }
      ],
      "name": "ERC20InsufficientAllowance",
      "type": "error"
    },
    {
      "inputs": [
        {
          "internalType": "address",
          "name": "sender",
          "type": "address"
        },
        {
          "internalType": "uint256",
          "name": "balance",
          "type": "uint256"
        },
        {
          "internalType": "uint256",
          "name": "needed",
          "type": "uint256"
        }
      ],
      "name": "ERC20InsufficientBalance",
      "type": "error"
    },
    {
      "inputs": [
        {
          "internalType": "address",
          "name": "approver",
          "type": "address"
        }
      ],
      "name": "ERC20InvalidApprover",
      "type": "error"
    },
    {
      "inputs": [
        {
          "internalType": "address",
          "name": "receiver",
          "type": "address"
        }
      ],
      "name": "ERC20InvalidReceiver",
      "type": "error"
    },
    {
      "inputs": [
        {
          "internalType": "address",
          "name": "sender",
          "type": "address"
        }
      ],
      "name": "ERC20InvalidSender",
      "type": "error"
    },
    {
      "inputs": [
        {
          "internalType": "address",
          "name": "spender",
          "type": "address"
        }
      ],
      "name": "ERC20InvalidSpender",
      "type": "error"
    },
    {
      "anonymous": false,
      "inputs": [
        {
          "indexed": true,
          "internalType": "address",
          "name": "owner",
          "type": "address"
        },
        {
          "indexed": true,
          "internalType": "address",
          "name": "spender",
          "type": "address"
        },
        {
          "indexed": false,
          "internalType": "uint256",
          "name": "value",
          "type": "uint256"
        }
      ],
      "name": "Approval",
      "type": "event"
    },
    {
      "anonymous": false,
      "inputs": [
        {
          "indexed": true,
          "internalType": "address",
          "name": "from",
          "type": "address"
        },
        {
          "indexed": true,
          "internalType": "address",
          "name": "to",
          "type": "address"
        },
        {
          "indexed": false,
          "internalType": "uint256",
          "name": "value",
          "type": "uint256"
        }
      ],
      "name": "Transfer",
      "type": "event"
    },
    {
      "inputs": [
        {
          "internalType": "address",
          "name": "owner",
          "type": "address"
        },
        {
          "internalType": "address",
          "name": "spender",
          "type": "address"
        }
      ],
      "name": "allowance",
      "outputs": [
        {
          "internalType": "uint256",
          "name": "",
          "type": "uint256"
        }
      ],
      "stateMutability": "view",
      "type": "function"
    },
    {
      "inputs": [
        {
          "internalType": "address",
          "name": "spender",
          "type": "address"
        },
        {
          "internalType": "uint256",
          "name": "value",
          "type": "uint256"
        }
      ],
      "name": "approve",
      "outputs": [
        {
          "internalType": "bool",
          "name": "",
          "type": "bool"
        }
      ],
      "stateMutability": "nonpayable",
      "type": "function"
    },
    {
      "inputs": [
        {
          "internalType": "address",
          "name": "account",
          "type": "address"
        }
      ],
      "name": "balanceOf",
      "outputs": [
        {
          "internalType": "uint256",
          "name": "",
          "type": "uint256"
        }
      ],
      "stateMutability": "view",
      "type": "function"
    },
    {
      "inputs": [],
      "name": "decimals",
      "outputs": [
        {
          "internalType": "uint8",
          "name": "",
          "type": "uint8"
        }
      ],
      "stateMutability": "view",
      "type": "function"
    },
    {
      "inputs": [],
      "name": "hookTarget",
      "outputs": [
        {
          "internalType": "address",
          "name": "",
          "type": "address"
        }
      ],
      "stateMutability": "view",
      "type": "function"
    },
    {
      "inputs": [
        {
          "internalType": "address",
          "name": "to",
          "type": "address"
        },
        {
          "internalType": "uint256",
          "name": "amount",
          "type": "uint256"
        }
      ],
      "name": "mint",
      "outputs": [],
      "stateMutability": "nonpayable",
      "type": "function"
    },
    {
      "inputs": [],
      "name": "name",
      "outputs": [
        {
          "internalType": "string",
          "name": "",
          "type": "string"
        }
      ],
      "stateMutability": "view",
      "type": "function"
    },
    {
      "inputs": [
        {
          "internalType": "address",
          "name": "target",
          "type": "address"
        }
      ],
      "name": "setHookTarget",
      "outputs": [],
      "stateMutability": "nonpayable",
      "type": "function"
    },
    {
      "inputs": [],
      "name": "symbol",
      "outputs": [
        {
          "internalType": "string",
          "name": "",
          "type": "string"
        }
      ],
      "stateMutability": "view",
      "type": "function"
    },
    {
      "inputs": [],
      "name": "totalSupply",
      "outputs": [
        {
          "internalType": "uint256",
          "name": "",
          "type": "uint256"
        }
      ],
      "stateMutability": "view",
      "type": "function"
    },
    {
      "inputs": [
        {
          "internalType": "address",
          "name": "to",
          "type": "address"
        },
        {
          "internalType": "uint256",
          "name": "value",
          "type": "uint256"
        }
      ],
      "name": "transfer",
      "outputs": [
        {
          "internalType": "bool",
          "name": "",
          "type": "bool"
        }
      ],
      "stateMutability": "nonpayable",
      "type": "function"
    },
    {
      "inputs": [
        {
          "internalType": "address",
          "name": "from",
          "type": "address"
        },
        {
          "internalType": "address",
          "name": "to",
          "type": "address"
        },
        {
          "internalType": "uint256",
          "name": "value",
          "type": "uint256"
        }
      ],
      "name": "transferFrom",
      "outputs": [
        {
          "internalType": "bool",
          "name": "",
          "type": "bool"
        }
      ],
      "stateMutability": "nonpayable",
      "type": "function"
    }
  ],
  "bytecode": "0x608060405234620002de5762000014620002e3565b6200001e620002e3565b8151906001600160401b0390818311620001de576003908154906001948583811c9316968715620002d3575b60209788851014620002bd578190601f9485811162000267575b5088908583116001146200020057600092620001f4575b505060001982861b1c191690861b1783555b8051938411620001de5760049586548681811c91168015620001d3575b82821014620001be5783811162000173575b5080928511600114620001055750938394918492600095620000f9575b50501b92600019911b1c19161790555b60405161093a9081620003148239f35b015193503880620000d9565b92919084601f1981168860005285600020956000905b898383106200015857505050106200013d575b50505050811b019055620000e9565b01519060f884600019921b161c19169055388080806200012e565b8587015189559097019694850194889350908101906200011b565b87600052816000208480880160051c820192848910620001b4575b0160051c019087905b828110620001a7575050620000bc565b6000815501879062000197565b925081926200018e565b602288634e487b7160e01b6000525260246000fd5b90607f1690620000aa565b634e487b7160e01b600052604160045260246000fd5b0151905038806200007b565b90889350601f19831691876000528a6000209260005b8c82821062000250575050841162000237575b505050811b0183556200008d565b015160001983881b60f8161c1916905538808062000229565b8385015186558c9790950194938401930162000216565b90915085600052886000208580850160051c8201928b8610620002b3575b918a91869594930160051c01915b828110620002a357505062000064565b600081558594508a910162000293565b9250819262000285565b634e487b7160e01b600052602260045260246000fd5b92607f16926200004a565b600080fd5b60408051919082016001600160401b03811183821017620001de57604052600382526213505360ea1b602083015256fe608060408181526004918236101561001657600080fd5b600092833560e01c91826306fdde03146105d757508163095ea7b31461052d57816318160ddd1461050e57816323b872dd1461041a578163313ce567146103fe578163353ac5f9146103d557816340c10f191461029f5781635d21b3001461025e57816370a082311461022757816395d89b411461012457508063a9059cbb146100f45763dd62ed3e146100a957600080fd5b346100f057806003193601126100f057806020926100c5610715565b6100cd610730565b6001600160a01b0391821683526001865283832091168252845220549051908152f35b5080fd5b50346100f057806003193601126100f05760209061011d610113610715565b6024359033610792565b5160018152f35b8383346100f057816003193601126100f057805191809380549160019083821c9282851694851561021d575b602095868610811461020a578589529081156101e6575060011461018e575b61018a8787610180828c0383610770565b51918291826106cc565b0390f35b81529295507f8a35acfbc15ff81a39ae7d344fd709f28e8600b4aa8c65c6b64bfe7fe36bd19b5b8284106101d3575050508261018a946101809282010194868061016f565b80548685018801529286019281016101b5565b60ff19168887015250505050151560051b83010192506101808261018a868061016f565b634e487b7160e01b845260228352602484fd5b93607f1693610150565b5050346100f05760203660031901126100f05760209181906001600160a01b0361024f610715565b16815280845220549051908152f35b833461029c57602036600319011261029c576001600160a01b03610280610715565b166bffffffffffffffffffffffff60a01b600554161760055580f35b80fd5b919050346103965780600319360112610396576102ba610715565b60243592906001600160a01b039081169081156103be576002548581018091116103ab5790869392916002558184528360205284842086815401905581847fddf252ad1be2c89b69c2b068fc378daa952ba7f163c4a11628f55a4df523b3ef602088518a8152a360055416908180151591826103a1575b50508061039a575b610341578280f35b803b15610396578291826044928651978895869463040d7ed760e21b865285015260248401525af190811561038d575061037e575b808281808280f35b61038790610746565b38610376565b513d84823e3d90fd5b8280fd5b5082610339565b1490508138610331565b634e487b7160e01b875260118452602487fd5b835163ec442f0560e01b8152808401879052602490fd5b5050346100f057816003193601126100f05760055490516001600160a01b039091168152602090f35b5050346100f057816003193601126100f0576020905160128152f35b9050823461029c57606036600319011261029c57610436610715565b61043e610730565b916044359360018060a01b03831680835260016020528683203384526020528683205491600019831061047a575b60208861011d898989610792565b8683106104e25781156104cb5733156104b45750825260016020908152868320338452815291869020908590039055829061011d8761046c565b8751634a1406b160e11b8152908101849052602490fd5b875163e602df0560e01b8152908101849052602490fd5b8751637dc7a0d960e11b8152339181019182526020820193909352604081018790528291506060010390fd5b5050346100f057816003193601126100f0576020906002549051908152f35b905034610396578160031936011261039657610547610715565b6024359033156105c0576001600160a01b03169182156105a957508083602095338152600187528181208582528752205582519081527f8c5be1e5ebec7d5bd14f71427d1e84f3dd0314c0f7b2291e5b200ac8c7c3b925843392a35160018152f35b8351634a1406b160e11b8152908101859052602490fd5b835163e602df0560e01b8152808401869052602490fd5b929150346106c857836003193601126106c857600354600181811c91869082811680156106be575b60209586861082146106ab57508488529081156106895750600114610630575b61018a8686610180828b0383610770565b929550600383527fc2575a0e9e593c00f959f8c92f12db2869c3395a3b0502d05e2516446f71f85b5b828410610676575050508261018a9461018092820101943861061f565b8054868501880152928601928101610659565b60ff191687860152505050151560051b83010192506101808261018a3861061f565b634e487b7160e01b845260229052602483fd5b93607f16936105ff565b8380fd5b6020808252825181830181905290939260005b82811061070157505060409293506000838284010152601f8019910116010190565b8181018601518482016040015285016106df565b600435906001600160a01b038216820361072b57565b600080fd5b602435906001600160a01b038216820361072b57565b67ffffffffffffffff811161075a57604052565b634e487b7160e01b600052604160045260246000fd5b90601f8019910116810190811067ffffffffffffffff82111761075a57604052565b6001600160a01b0380821693919290919084156108eb5782169384156108d2576000928184528360205260409485852054908482106108a15750839083865285602052038585205585845284842083815401905585827fddf252ad1be2c89b69c2b068fc378daa952ba7f163c4a11628f55a4df523b3ef60208851878152a36005541694858015159182610897575b50508061088f575b610835575b5050505050565b843b15610396579060448392838651978894859363040d7ed760e21b8552600485015260248401525af1918215610885575050610876575b8080808061082e565b61087f90610746565b3861086d565b51903d90823e3d90fd5b506001610829565b1490508538610821565b865163391434e360e21b81526001600160a01b03919091166004820152602481019190915260448101849052606490fd5b60405163ec442f0560e01b815260006004820152602490fd5b604051634b637e8f60e11b815260006004820152602490fdfea2646970667358221220c077eaacf42c63fcbbe46fc22e724d94f7a02b4bd1afb0ccf0f4dac573dd3ce164736f6c63430008140033",
  "linkReferences": {},
  "deployedLinkReferences": {}
}