{
  "_format": "hh-sol-artifact-1",
  "contractName": "MockChainlinkAggregator",
  "sourceName": "contracts/MockChainlinkAggregator.sol",
  "abi": [
    {
      "inputs": [
        {
          "internalType": "int256",
          "name": "price_",
          "type": "int256"
        },
        {
          "internalType": "uint256",
          "name": "updatedAt_",
          "type": "uint256"
        }
      ],
      "stateMutability": "nonpayable",
      "type": "constructor"
    },
    {
      "inputs": [],
      "name": "decimals",
      "outputs": [
        {
          "internalType": "uint8",
          "name": "",
          "type": "uint8"
        }
      ],
      "stateMutability": "pure",
      "type": "function"
    },
    {
      "inputs": [],
      "name": "latestRoundData",
      "outputs": [
        {
          "internalType": "uint80",
          "name": "roundId",
          "type": "uint80"
        },
        {
          "internalType": "int256",
          "name": "answer",
          "type": "int256"
        },
        {
          "internalType": "uint256",
          "name": "startedAt",
          "type": "uint256"
        },
        {
          "internalType": "uint256",
          "name": "updatedAt",
          "type": "uint256"
        },
        {
          "internalType": "uint80",
          "name": "answeredInRound",
          "type": "uint80"
        }
      ],
      "stateMutability": "view",
      "type": "function"
    }
  ],
  "bytecode": "0x60803461005957601f61013538819003918201601f19168301916001600160401b0383118484101761005e57808492604094855283398101031261005957602081519101519060005560015560405160c090816100758239f35b600080fd5b634e487b7160e01b600052604160045260246000fdfe6080806040526004361015601257600080fd5b600090813560e01c908163313ce56714606d575063feaf968c14603457600080fd5b34606a5780600319360112606a5760a0905460015460405191600183526020830152426040830152606082015260016080820152f35b80fd5b9050346086578160031936011260865780600860209252f35b5080fdfea2646970667358221220a73f1b2b16df718b0db175c5535cac2e780885a3a8c747cda0a44163188e4a3364736f6c63430008140033",
  "linkReferences": {},
  "deployedLinkReferences": {}
}