{
  "_format": "hh-sol-artifact-1",
  "contractName": "MockPancakeRouter",
  "sourceName": "contracts/MockPancakeRouter.sol",
  "abi": [
    {
      "inputs": [],
      "name": "WETH",
      "outputs": [
        {
          "internalType": "address",
          "name": "",
          "type": "address"
        }
      ],
      "stateMutability": "pure",
      "type": "function"
    },
    {
      "inputs": [
        {
          "internalType": "uint256",
          "name": "amountIn",
          "type": "uint256"
        },
        {
          "internalType": "address[]",
          "name": "",
          "type": "address[]"
        }
      ],
      "name": "getAmountsOut",
      "outputs": [
        {
          "internalType": "uint256[]",
          "name": "amounts",
          "type": "uint256[]"
        }
      ],
      "stateMutability": "pure",
      "type": "function"
    },
    {
      "inputs": [
        {
          "internalType": "uint256",
          "name": "amountIn",
          "type": "uint256"
        },
        {
          "internalType": "uint256",
          "name": "",
          "type": "uint256"
        },
        {
          "internalType": "address[]",
          "name": "",
          "type": "address[]"
        },
        {
          "internalType": "address",
          "name": "to",
          "type": "address"
        },
        {
          "internalType": "uint256",
          "name": "",
          "type": "uint256"
        }
      ],
      "name": "swapExactTokensForETH",
      "outputs": [
        {
          "internalType": "uint256[]",
          "name": "amounts",
          "type": "uint256[]"
        }
      ],
      "stateMutability": "nonpayable",
      "type": "function"
    },
    {
      "stateMutability": "payable",
      "type": "receive"
    }
  ],
  "bytecode": "0x6080806040523461001657610342908161001c8239f35b600080fdfe60406080815260049081361015610020575b5050361561001e57600080fd5b005b600090813560e01c806318cbafe5146100f3578063ad5c4648146100c55763d06ca61f1461004e5750610011565b346100c157806003193601126100c1578235916024359067ffffffffffffffff82116100be57506100ba9361008591369101610232565b505061008f6102a3565b916002835281366020850137806100a5846102d9565b526100af836102fc565b525191829182610268565b0390f35b80fd5b5080fd5b50346100c157816003193601126100c1576020905173bbbbbbbbbbbbbbbbbbbbbbbbbbbbbbbbbbbbbbbb8152f35b5091346100c15760a03660031901126100c15780359167ffffffffffffffff60443581811161022e576101299036908501610232565b50506064356001600160a01b038116949085900361022e57828080809361014e6102a3565b9860028a528a3660208c0137816101648b6102d9565b528161016f8b6102fc565b525af1913d15610227573d82811161021457865192601f8201601f19908116603f0116840190811184821017610201578752825260203d92013e5b156101be57506100ba915191829182610268565b606490602084519162461bcd60e51b8352820152601b60248201527f4d6f636b526f757465723a20424e422073656e64206661696c656400000000006044820152fd5b634e487b7160e01b835260418652602483fd5b634e487b7160e01b825260418552602482fd5b50506101aa565b8280fd5b9181601f840112156102635782359167ffffffffffffffff8311610263576020808501948460051b01011161026357565b600080fd5b6020908160408183019282815285518094520193019160005b82811061028f575050505090565b835185529381019392810192600101610281565b604051906060820182811067ffffffffffffffff8211176102c357604052565b634e487b7160e01b600052604160045260246000fd5b8051156102e65760200190565b634e487b7160e01b600052603260045260246000fd5b8051600110156102e6576040019056fea2646970667358221220f85cbc1a3ad43acb5330120d630e985aa9b375a74f922490b91437eecfb77c5564736f6c63430008140033",
  "linkReferences": {},
  "deployedLinkReferences": {}
}