{
  "_format": "hh-sol-artifact-1",
  "contractName": "RewardDistributor",
  "sourceName": "contracts/RewardDistributor.sol",
  "abi": [
    {
      "inputs": [
        {
          "internalType": "address",
          "name": "_luxfiToken",
          "type": "address"
        }
      ],
      "stateMutability": "nonpayable",
      "type": "constructor"
    },
    {
      "inputs": [],
      "name": "EnforcedPause",
      "type": "error"
    },
    {
      "inputs": [],
      "name": "ExpectedPause",
      "type": "error"
    },
    {
      "inputs": [
        {
          "internalType": "address",
          "name": "owner",
          "type": "address"
        }
      ],
      "name": "OwnableInvalidOwner",
      "type": "error"
    },
    {
      "inputs": [
        {
          "internalType": "address",
          "name": "account",
          "type": "address"
        }
      ],
      "name": "OwnableUnauthorizedAccount",
      "type": "error"
    },
    {
      "inputs": [],
      "name": "ReentrancyGuardReentrantCall",
      "type": "error"
    },
    {
      "anonymous": false,
      "inputs": [
        {
          "indexed": true,
          "internalType": "address",
          "name": "previousOwner",
          "type": "address"
        },
        {
          "indexed": true,
          "internalType": "address",
          "name": "newOwner",
          "type": "address"
        }
      ],
      "name": "OwnershipTransferred",
      "type": "event"
    },
    {
      "anonymous": false,
      "inputs": [
        {
          "indexed": false,
          "internalType": "address",
          "name": "account",
          "type": "address"
        }
      ],
      "name": "Paused",
      "type": "event"
    },
    {
      "anonymous": false,
      "inputs": [
        {
          "indexed": true,
          "internalType": "uint256",
          "name": "poolId",
          "type": "uint256"
        },
        {
          "indexed": true,
          "internalType": "uint256",
          "name": "brandId",
          "type": "uint256"
        },
        {
          "indexed": false,
          "internalType": "uint256",
          "name": "totalReward",
          "type": "uint256"
        }
      ],
      "name": "PoolCreated",
      "type": "event"
    },
    {
      "anonymous": false,
      "inputs": [
        {
          "indexed": true,
          "internalType": "uint256",
          "name": "poolId",
          "type": "uint256"
        },
        {
          "indexed": true,
          "internalType": "address",
          "name": "user",
          "type": "address"
        },
        {
          "indexed": false,
          "internalType": "uint256",
          "name": "amount",
          "type": "uint256"
        }
      ],
      "name": "RewardAllocated",
      "type": "event"
    },
    {
      "anonymous": false,
      "inputs": [
        {
          "indexed": true,
          "internalType": "uint256",
          "name": "poolId",
          "type": "uint256"
        },
        {
          "indexed": true,
          "internalType": "address",
          "name": "user",
          "type": "address"
        },
        {
          "indexed": false,
          "internalType": "uint256",
          "name": "amount",
          "type": "uint256"
        }
      ],
      "name": "RewardClaimed",
      "type": "event"
    },
    {
      "anonymous": false,
      "inputs": [
        {
          "indexed": false,
          "internalType": "address",
          "name": "account",
          "type": "address"
        }
      ],
      "name": "Unpaused",
      "type": "event"
    },
    {
      "inputs": [
        {
          "internalType": "uint256",
          "name": "poolId",
          "type": "uint256"
        },
        {
          "internalType": "address[]",
          "name": "users",
          "type": "address[]"
        },
        {
          "internalType": "uint256[]",
          "name": "amounts",
          "type": "uint256[]"
        }
      ],
      "name": "allocateRewards",
      "outputs": [],
      "stateMutability": "nonpayable",
      "type": "function"
    },
    {
      "inputs": [
        {
          "internalType": "uint256",
          "name": "poolId",
          "type": "uint256"
        }
      ],
      "name": "claimReward",
      "outputs": [],
      "stateMutability": "nonpayable",
      "type": "function"
    },
    {
      "inputs": [
        {
          "internalType": "uint256",
          "name": "",
          "type": "uint256"
        },
        {
          "internalType": "address",
          "name": "",
          "type": "address"
        }
      ],
      "name": "claimable",
      "outputs": [
        {
          "internalType": "uint256",
          "name": "",
          "type": "uint256"
        }
      ],
      "stateMutability": "view",
      "type": "function"
    },
    {
      "inputs": [
        {
          "internalType": "uint256",
          "name": "",
          "type": "uint256"
        },
        {
          "internalType": "address",
          "name": "",
          "type": "address"
        }
      ],
      "name": "claimed",
      "outputs": [
        {
          "internalType": "bool",
          "name": "",
          "type": "bool"
        }
      ],
      "stateMutability": "view",
      "type": "function"
    },
    {
      "inputs": [
        {
          "internalType": "uint256",
          "name": "brandId",
          "type": "uint256"
        },
        {
          "internalType": "uint256",
          "name": "totalReward",
          "type": "uint256"
        },
        {
          "internalType": "uint256",
          "name": "claimDays",
          "type": "uint256"
        }
      ],
      "name": "createPool",
      "outputs": [
        {
          "internalType": "uint256",
          "name": "",
          "type": "uint256"
        }
      ],
      "stateMutability": "nonpayable",
      "type": "function"
    },
    {
      "inputs": [
        {
          "internalType": "uint256",
          "name": "poolId",
          "type": "uint256"
        },
        {
          "internalType": "address",
          "name": "user",
          "type": "address"
        }
      ],
      "name": "getClaimable",
      "outputs": [
        {
          "internalType": "uint256",
          "name": "",
          "type": "uint256"
        }
      ],
      "stateMutability": "view",
      "type": "function"
    },
    {
      "inputs": [
        {
          "internalType": "uint256",
          "name": "poolId",
          "type": "uint256"
        }
      ],
      "name": "getPool",
      "outputs": [
        {
          "components": [
            {
              "internalType": "uint256",
              "name": "brandId",
              "type": "uint256"
            },
            {
              "internalType": "uint256",
              "name": "totalReward",
              "type": "uint256"
            },
            {
              "internalType": "uint256",
              "name": "distributedAt",
              "type": "uint256"
            },
            {
              "internalType": "uint256",
              "name": "claimDeadline",
              "type": "uint256"
            },
            {
              "internalType": "bool",
              "name": "active",
              "type": "bool"
            }
          ],
          "internalType": "struct RewardDistributor.RewardPool",
          "name": "",
          "type": "tuple"
        }
      ],
      "stateMutability": "view",
      "type": "function"
    },
    {
      "inputs": [
        {
          "internalType": "uint256",
          "name": "poolId",
          "type": "uint256"
        },
        {
          "internalType": "address",
          "name": "user",
          "type": "address"
        }
      ],
      "name": "hasClaimed",
      "outputs": [
        {
          "internalType": "bool",
          "name": "",
          "type": "bool"
        }
      ],
      "stateMutability": "view",
      "type": "function"
    },
    {
      "inputs": [],
      "name": "luxfiToken",
      "outputs": [
        {
          "internalType": "contract IERC20",
          "name": "",
          "type": "address"
        }
      ],
      "stateMutability": "view",
      "type": "function"
    },
    {
      "inputs": [],
      "name": "owner",
      "outputs": [
        {
          "internalType": "address",
          "name": "",
          "type": "address"
        }
      ],
      "stateMutability": "view",
      "type": "function"
    },
    {
      "inputs": [],
      "name": "pause",
      "outputs": [],
      "stateMutability": "nonpayable",
      "type": "function"
    },
    {
      "inputs": [],
      "name": "paused",
      "outputs": [
        {
          "internalType": "bool",
          "name": "",
          "type": "bool"
        }
      ],
      "stateMutability": "view",
      "type": "function"
    },
    {
      "inputs": [],
      "name": "poolCount",
      "outputs": [
        {
          "internalType": "uint256",
          "name": "",
          "type": "uint256"
        }
      ],
      "stateMutability": "view",
      "type": "function"
    },
    {
      "inputs": [
        {
          "internalType": "uint256",
          "name": "",
          "type": "uint256"
        }
      ],
      "name": "pools",
      "outputs": [
        {
          "internalType": "uint256",
          "name": "brandId",
          "type": "uint256"
        },
        {
          "internalType": "uint256",
          "name": "totalReward",
          "type": "uint256"
        },
        {
          "internalType": "uint256",
          "name": "distributedAt",
          "type": "uint256"
        },
        {
          "internalType": "uint256",
          "name": "claimDeadline",
          "type": "uint256"
        },
        {
          "internalType": "bool",
          "name": "active",
          "type": "bool"
        }
      ],
      "stateMutability": "view",
      "type": "function"
    },
    {
      "inputs": [],
      "name": "renounceOwnership",
      "outputs": [],
      "stateMutability": "nonpayable",
      "type": "function"
    },
    {
      "inputs": [
        {
          "internalType": "address",
          "name": "",
          "type": "address"
        }
      ],
      "name": "totalClaimed",
      "outputs": [
        {
          "internalType": "uint256",
          "name": "",
          "type": "uint256"
        }
      ],
      "stateMutability": "view",
      "type": "function"
    },
    {
      "inputs": [
        {
          "internalType": "address",
          "name": "newOwner",
          "type": "address"
        }
      ],
      "name": "transferOwnership",
      "outputs": [],
      "stateMutability": "nonpayable",
      "type": "function"
    },
    {
      "inputs": [],
      "name": "unpause",
      "outputs": [],
      "stateMutability": "nonpayable",
      "type": "function"
    }
  ],
  "bytecode": "0x6080346100ea57601f610ddb38819003918201601f19168301916001600160401b038311848410176100ef578084926020946040528339810103126100ea57516001600160a01b0390818116908190036100ea5733156100d15760005460018060a01b0319903382821617600055604051933391167f8be0079c531659141344cd1fd0a4f28419497f9722a3daafe3b4186f6b6457e0600080a360017f9b779b17422d0df92223018b32b4d1fa46e071723d6817e2486d003becc55f00556001541617600155610cd590816101068239f35b604051631e4fbdf760e01b815260006004820152602490fd5b600080fd5b634e487b7160e01b600052604160045260246000fdfe6040608081526004908136101561001557600080fd5b600091823560e01c90816305131b8d146108c7578163068bcd8d1461081c578163120aa877146106865781633f4ba83a146107ae5781635c975abb14610789578163715018a61461072c5781638456cb59146106cd578163873f6f9e146106865781638da5cb5b1461065e578163a0c7f71c14610385578163ac4afa3814610606578163adc0ea63146105dd578163ae169a50146103c6578163b961cbe114610385578163c3391d27146101cd578163ef5d9ae814610195578163f2fde38b1461010a575063f525cb68146100e957600080fd5b346101065781600319360112610106576020906002549051908152f35b5080fd5b90503461019157602036600319011261019157610125610b26565b9061012e610b3c565b6001600160a01b0391821692831561017b57505082546001600160a01b0319811683178455167f8be0079c531659141344cd1fd0a4f28419497f9722a3daafe3b4186f6b6457e08380a380f35b51631e4fbdf760e01b8152908101849052602490fd5b8280fd5b5050346101065760203660031901126101065760209181906001600160a01b036101bd610b26565b1681526006845220549051908152f35b91905034610191576060366003190112610191578135602435604435936101f2610b3c565b81156103545760015484516323b872dd60e01b8152338184015230602482015260448101849052602097929188908290606490829087906001600160a01b03165af190811561034a579061024d91849161031d575b50610bd4565b6002549561025a87610c12565b600255620151809081810291818304149015171561030a57927f6a0c7fbf44f6331867816b75328f586816c7ff60b5f3b71d7ccd1da786a938989288926102a2899642610c37565b8851906102ae82610b68565b8882528582018581528a830190428252606084019283528b6080850196600188528b815260038a522093518455516001840155516002830155516003820155019051151560ff801983541691161790558551908152a351908152f35b634e487b7160e01b835260118252602483fd5b61033d9150893d8b11610343575b6103358183610b9a565b810190610bbc565b38610247565b503d61032b565b86513d85823e3d90fd5b606490602085519162461bcd60e51b8352820152600b60248201526a16995c9bc81c995dd85c9960aa1b6044820152fd5b90503461019157816003193601126101915760209282916103a4610b10565b813583529085528282206001600160a01b039091168252845220549051908152f35b90503461019157602090816003193601126105d95780357f9b779b17422d0df92223018b32b4d1fa46e071723d6817e2486d003becc55f009260028454146105c95760028455610414610c7e565b81865260058152848620338752815260ff8587205416610595578186526003815260038587200154421161055e5781865282815284862033875281528486205492831561052a57818791848352600582528783203384528252878320600160ff198254161790556006825287832061048d878254610c37565b9055600154885163a9059cbb60e01b81523392810192909252602482018790529092839160449183916001600160a01b03165af190811561052057956104fe7f24b5efa61dd1cfc659205a97fb8ed868f3cb8c81922bab2b96423e5de1de2cb793926001988a916105095750610bd4565b519384523393a35580f35b61033d9150843d8611610343576103358183610b9a565b86513d89823e3d90fd5b60649186519162461bcd60e51b8352820152601060248201526f4e6f7468696e6720746f20636c61696d60801b6044820152fd5b8260649186519162461bcd60e51b8352820152601260248201527110db185a5b481c195c9a5bd908195b99195960721b6044820152fd5b8260649186519162461bcd60e51b8352820152600f60248201526e105b1c9958591e4818db185a5b5959608a1b6044820152fd5b8451633ee5aeb560e01b81528390fd5b8380fd5b50503461010657816003193601126101065760015490516001600160a01b039091168152602090f35b91905034610191576020366003190112610191578060a0938335815260036020522080549260018201549260ff6002840154926003850154940154169381519586526020860152840152606083015215156080820152f35b505034610106578160031936011261010657905490516001600160a01b039091168152602090f35b9050346101915781600319360112610191578160209360ff926106a7610b10565b90358252600586528282206001600160a01b039091168252855220549151911615158152f35b50503461010657816003193601126101065760207f62e78cea01bee320cd4e420270b5ea74000d11b0c9f74754ebdbfc544b05a2589161070b610b3c565b610713610c7e565b835460ff60a01b1916600160a01b17845551338152a180f35b8334610786578060031936011261078657610745610b3c565b80546001600160a01b03198116825581906001600160a01b03167f8be0079c531659141344cd1fd0a4f28419497f9722a3daafe3b4186f6b6457e08280a380f35b80fd5b50503461010657816003193601126101065760ff6020925460a01c1690519015158152f35b9050346101915782600319360112610191576107c8610b3c565b82549060ff8260a01c161561080e575060ff60a01b19168255513381527f5db9ee0a495bf2e6ff9c91a7834c1ba4fdd244a5e8aa4e537bd38aeae4b073aa90602090a180f35b8251638dfc202b60e01b8152fd5b9190503461019157602036600319011261019157808360a0946080835161084281610b68565b828152826020820152828582015282606082015201528335815260036020522081519161086e83610b68565b815493848452600183015460208501908152608060ff6002860154938588019485526003870154966060890197885201541695019415158552825195865251602086015251908401525160608301525115156080820152f35b9190503461019157606036600319011261019157602490823567ffffffffffffffff8335818111610ad6576108ff9036908701610ada565b95906044928335908111610ad25761091a9036908401610ada565b919092610925610b3c565b828903610aa6576101f48911610a7a57858a526020946003865260ff82898d2001541615610a47578a5b8a811061095a578b80f35b6001600160a01b0380610976610971848f89610c44565b610c6a565b1615610a16579089897f430a18f091830a5a0781d84ee30e10968a2eccb8a0043782ea6f5efee275827c8f8f958b610a03878f946109fd8f918f8f9d8591610a119f6109f68f8f92968d8f610971998f8a8e6109d192610c44565b359684528152838320916109e96109718b8b8b610c44565b1683525220918254610c37565b9055610c44565b93610c44565b3595519586521693a3610c12565b61094f565b50885162461bcd60e51b8152808401889052600c818c01526b5a65726f206164647265737360a01b81840152606490fd5b875162461bcd60e51b8152918201869052600f828a01526e506f6f6c206e6f742061637469766560881b90820152606490fd5b60649067546f6f206d616e7960c01b8660088b60208c519562461bcd60e51b8752860152840152820152fd5b6064906709ad2e6dac2e8c6d60c31b8660088b60208c519562461bcd60e51b8752860152840152820152fd5b8880fd5b8680fd5b9181601f84011215610b0b5782359167ffffffffffffffff8311610b0b576020808501948460051b010111610b0b57565b600080fd5b602435906001600160a01b0382168203610b0b57565b600435906001600160a01b0382168203610b0b57565b6000546001600160a01b03163303610b5057565b60405163118cdaa760e01b8152336004820152602490fd5b60a0810190811067ffffffffffffffff821117610b8457604052565b634e487b7160e01b600052604160045260246000fd5b90601f8019910116810190811067ffffffffffffffff821117610b8457604052565b90816020910312610b0b57518015158103610b0b5790565b15610bdb57565b60405162461bcd60e51b815260206004820152600f60248201526e151c985b9cd9995c8819985a5b1959608a1b6044820152606490fd5b6000198114610c215760010190565b634e487b7160e01b600052601160045260246000fd5b91908201809211610c2157565b9190811015610c545760051b0190565b634e487b7160e01b600052603260045260246000fd5b356001600160a01b0381168103610b0b5790565b60ff60005460a01c16610c8d57565b60405163d93c066560e01b8152600490fdfea264697066735822122000f574cf8691ffe76426c6320809b18ff8e266571d153d6bbe08beb19092415d64736f6c63430008140033",
  "linkReferences": {},
  "deployedLinkReferences": {}
}