{
  "_format": "hh-sol-artifact-1",
  "contractName": "LuxfiStaking",
  "sourceName": "contracts/LuxfiStaking.sol",
  "abi": [
    {
      "inputs": [
        {
          "internalType": "address",
          "name": "_token",
          "type": "address"
        },
        {
          "internalType": "address",
          "name": "_feeDistributor",
          "type": "address"
        }
      ],
      "stateMutability": "nonpayable",
      "type": "constructor"
    },
    {
      "inputs": [
        {
          "internalType": "address",
          "name": "owner",
          "type": "address"
        }
      ],
      "name": "OwnableInvalidOwner",
      "type": "error"
    },
    {
      "inputs": [
        {
          "internalType": "address",
          "name": "account",
          "type": "address"
        }
      ],
      "name": "OwnableUnauthorizedAccount",
      "type": "error"
    },
    {
      "inputs": [],
      "name": "ReentrancyGuardReentrantCall",
      "type": "error"
    },
    {
      "inputs": [
        {
          "internalType": "address",
          "name": "token",
          "type": "address"
        }
      ],
      "name": "SafeERC20FailedOperation",
      "type": "error"
    },
    {
      "anonymous": false,
      "inputs": [
        {
          "indexed": true,
          "internalType": "address",
          "name": "previousOwner",
          "type": "address"
        },
        {
          "indexed": true,
          "internalType": "address",
          "name": "newOwner",
          "type": "address"
        }
      ],
      "name": "OwnershipTransferred",
      "type": "event"
    },
    {
      "anonymous": false,
      "inputs": [
        {
          "indexed": true,
          "internalType": "address",
          "name": "user",
          "type": "address"
        },
        {
          "indexed": false,
          "internalType": "uint256",
          "name": "amount",
          "type": "uint256"
        }
      ],
      "name": "Staked",
      "type": "event"
    },
    {
      "anonymous": false,
      "inputs": [
        {
          "indexed": true,
          "internalType": "address",
          "name": "user",
          "type": "address"
        },
        {
          "indexed": false,
          "internalType": "uint256",
          "name": "amount",
          "type": "uint256"
        }
      ],
      "name": "Unstaked",
      "type": "event"
    },
    {
      "inputs": [],
      "name": "feeDistributor",
      "outputs": [
        {
          "internalType": "contract IFeeDistributor",
          "name": "",
          "type": "address"
        }
      ],
      "stateMutability": "view",
      "type": "function"
    },
    {
      "inputs": [],
      "name": "luxfiToken",
      "outputs": [
        {
          "internalType": "contract IERC20",
          "name": "",
          "type": "address"
        }
      ],
      "stateMutability": "view",
      "type": "function"
    },
    {
      "inputs": [],
      "name": "owner",
      "outputs": [
        {
          "internalType": "address",
          "name": "",
          "type": "address"
        }
      ],
      "stateMutability": "view",
      "type": "function"
    },
    {
      "inputs": [],
      "name": "renounceOwnership",
      "outputs": [],
      "stateMutability": "nonpayable",
      "type": "function"
    },
    {
      "inputs": [
        {
          "internalType": "address",
          "name": "newFeeDistributor",
          "type": "address"
        }
      ],
      "name": "setFeeDistributor",
      "outputs": [],
      "stateMutability": "nonpayable",
      "type": "function"
    },
    {
      "inputs": [
        {
          "internalType": "uint256",
          "name": "amount",
          "type": "uint256"
        }
      ],
      "name": "stake",
      "outputs": [],
      "stateMutability": "nonpayable",
      "type": "function"
    },
    {
      "inputs": [
        {
          "internalType": "address",
          "name": "",
          "type": "address"
        }
      ],
      "name": "staked",
      "outputs": [
        {
          "internalType": "uint256",
          "name": "",
          "type": "uint256"
        }
      ],
      "stateMutability": "view",
      "type": "function"
    },
    {
      "inputs": [],
      "name": "totalStaked",
      "outputs": [
        {
          "internalType": "uint256",
          "name": "",
          "type": "uint256"
        }
      ],
      "stateMutability": "view",
      "type": "function"
    },
    {
      "inputs": [
        {
          "internalType": "address",
          "name": "newOwner",
          "type": "address"
        }
      ],
      "name": "transferOwnership",
      "outputs": [],
      "stateMutability": "nonpayable",
      "type": "function"
    },
    {
      "inputs": [
        {
          "internalType": "uint256",
          "name": "amount",
          "type": "uint256"
        }
      ],
      "name": "unstake",
      "outputs": [],
      "stateMutability": "nonpayable",
      "type": "function"
    }
  ],
  "bytecode": "0x60a03461019d57610a0d90601f38839003908101601f19168201906001600160401b038211838310176101a2578083916040958694855283398101031261019d57610055602061004e836101b8565b92016101b8565b60017f9b779b17422d0df92223018b32b4d1fa46e071723d6817e2486d003becc55f005533156101855760008054336001600160a01b03198083168217845586519590946001600160a01b03949093859391908416907f8be0079c531659141344cd1fd0a4f28419497f9722a3daafe3b4186f6b6457e09080a31693841561015357501691821561010f5760805260015416176001555161084090816101cd82396080518181816101cd0152818161024201526105510152f35b835162461bcd60e51b815260206004820152601360248201527f496e76616c6964206469737472696275746f72000000000000000000000000006044820152606490fd5b62461bcd60e51b815260206004820152600d60248201526c24b73b30b634b2103a37b5b2b760991b6044820152606490fd5b8251631e4fbdf760e01b815260006004820152602490fd5b600080fd5b634e487b7160e01b600052604160045260246000fd5b51906001600160a01b038216820361019d5756fe608060408181526004908136101561001657600080fd5b600092833560e01c9081630d43e8ad146106e0575080632e17de7814610486578063715018a614610429578063817b1cd21461040a5780638da5cb5b146103e257806398807d84146103a8578063a694fc3a14610200578063adc0ea63146101b8578063ccfc2e8d1461012c5763f2fde38b1461009257600080fd5b34610128576020366003190112610128576001600160a01b03823581811693919290849003610124576100c3610705565b831561010e575050600054826bffffffffffffffffffffffff60a01b821617600055167f8be0079c531659141344cd1fd0a4f28419497f9722a3daafe3b4186f6b6457e0600080a380f35b51631e4fbdf760e01b8152908101849052602490fd5b8480fd5b8280fd5b5090346101285760203660031901126101285780356001600160a01b03811692908390036101b45761015c610705565b821561017f5750506bffffffffffffffffffffffff60a01b600154161760015580f35b906020606492519162461bcd60e51b8352820152600f60248201526e496e76616c6964206164647265737360881b6044820152fd5b8380fd5b8382346101fc57816003193601126101fc57517f00000000000000000000000000000000000000000000000000000000000000006001600160a01b03168152602090f35b5080fd5b50346101285760203660031901126101285781359161021d6107bb565b610228831515610731565b81516323b872dd60e01b85523382523060245260448490527f000000000000000000000000000000000000000000000000000000000000000060208660648180855af16001875114811615610389575b828552866060521561036a5750508390338252600260205282822061029e85825461076e565b90556102ac8460035461076e565b6003556001546001600160a01b0316803b15610128578351633be034c760e01b81523392810192835260208301869052918391839182908490829060400103925af180156103605761034c575b5050519081527f9e71bc8eea02a63969f509818f2dafb9254532904319f9dbda79b67bd34a5f3d60203392a260017f9b779b17422d0df92223018b32b4d1fa46e071723d6817e2486d003becc55f005580f35b61035590610791565b6101285782386102f9565b83513d84823e3d90fd5b635274afe760e01b82526001600160a01b031691810191909152602490fd5b600181151661039f57813b15153d151616610278565b823d88823e3d90fd5b50903461012857602036600319011261012857356001600160a01b0381169081900361012857828291602094526002845220549051908152f35b8382346101fc57816003193601126101fc57905490516001600160a01b039091168152602090f35b8382346101fc57816003193601126101fc576020906003549051908152f35b8334610483578060031936011261048357610442610705565b600080546001600160a01b0319811682556001600160a01b03167f8be0079c531659141344cd1fd0a4f28419497f9722a3daafe3b4186f6b6457e08280a380f35b80fd5b503461012857602090816003193601126101b4578235926104a56107bb565b6104b0841515610731565b338552600283528382862054106106aa57338552600283528185206104d68582546107fd565b90556104e4846003546107fd565b600355338552600283528482812054801560001461063c57506001546001600160a01b0316803b156101fc578180916024865180948193633a744b8360e01b835233898401525af180156106325761061e575b50505b815163a9059cbb60e01b86523382526024859052907f0000000000000000000000000000000000000000000000000000000000000000848760448180855af160018851148116156105ff575b838552156105e257505050907f0f5bb82176feb1b5e747e28471aa92156a04d9f3ab9f45f28e2d704232b93f7591519283523392a260017f9b779b17422d0df92223018b32b4d1fa46e071723d6817e2486d003becc55f005580f35b635274afe760e01b83526001600160a01b03169082015260249150fd5b600181151661061557813b15153d151616610586565b833d89823e3d90fd5b61062790610791565b610124578438610537565b84513d84823e3d90fd5b6001546001600160a01b031690813b15610128578451633be034c760e01b81523385820190815260208101929092529291839182908490829060400103925af180156106a05761068d575b5061053a565b61069990959195610791565b9338610687565b83513d88823e3d90fd5b82606492519162461bcd60e51b83528201526012602482015271496e73756666696369656e74207374616b6560701b6044820152fd5b8490346101fc57816003193601126101fc576001546001600160a01b03168152602090f35b6000546001600160a01b0316330361071957565b60405163118cdaa760e01b8152336004820152602490fd5b1561073857565b60405162461bcd60e51b815260206004820152600e60248201526d125b9d985b1a5908185b5bdd5b9d60921b6044820152606490fd5b9190820180921161077b57565b634e487b7160e01b600052601160045260246000fd5b67ffffffffffffffff81116107a557604052565b634e487b7160e01b600052604160045260246000fd5b7f9b779b17422d0df92223018b32b4d1fa46e071723d6817e2486d003becc55f0060028154146107eb5760029055565b604051633ee5aeb560e01b8152600490fd5b9190820391821161077b5756fea2646970667358221220497be3ab0dbaea87502be5b9079872a3336ff0b010d42ae7e5f05c0d7a9c67a564736f6c63430008140033",
  "linkReferences": {},
  "deployedLinkReferences": {}
}