{
  "_format": "hh-sol-artifact-1",
  "contractName": "LuxfiMigration",
  "sourceName": "contracts/LuxfiMigration.sol",
  "abi": [
    {
      "inputs": [
        {
          "internalType": "address",
          "name": "_luxfiToken",
          "type": "address"
        }
      ],
      "stateMutability": "nonpayable",
      "type": "constructor"
    },
    {
      "inputs": [],
      "name": "EnforcedPause",
      "type": "error"
    },
    {
      "inputs": [],
      "name": "ExpectedPause",
      "type": "error"
    },
    {
      "inputs": [
        {
          "internalType": "address",
          "name": "owner",
          "type": "address"
        }
      ],
      "name": "OwnableInvalidOwner",
      "type": "error"
    },
    {
      "inputs": [
        {
          "internalType": "address",
          "name": "account",
          "type": "address"
        }
      ],
      "name": "OwnableUnauthorizedAccount",
      "type": "error"
    },
    {
      "inputs": [],
      "name": "ReentrancyGuardReentrantCall",
      "type": "error"
    },
    {
      "inputs": [
        {
          "internalType": "address",
          "name": "token",
          "type": "address"
        }
      ],
      "name": "SafeERC20FailedOperation",
      "type": "error"
    },
    {
      "anonymous": false,
      "inputs": [
        {
          "indexed": false,
          "internalType": "address",
          "name": "newVault",
          "type": "address"
        },
        {
          "indexed": false,
          "internalType": "address",
          "name": "newToken",
          "type": "address"
        },
        {
          "indexed": false,
          "internalType": "uint256",
          "name": "activatesAt",
          "type": "uint256"
        }
      ],
      "name": "MigrationAnnounced",
      "type": "event"
    },
    {
      "anonymous": false,
      "inputs": [],
      "name": "MigrationCancelled",
      "type": "event"
    },
    {
      "anonymous": false,
      "inputs": [],
      "name": "MigrationEnabled",
      "type": "event"
    },
    {
      "anonymous": false,
      "inputs": [
        {
          "indexed": true,
          "internalType": "address",
          "name": "previousOwner",
          "type": "address"
        },
        {
          "indexed": true,
          "internalType": "address",
          "name": "newOwner",
          "type": "address"
        }
      ],
      "name": "OwnershipTransferred",
      "type": "event"
    },
    {
      "anonymous": false,
      "inputs": [
        {
          "indexed": false,
          "internalType": "address",
          "name": "account",
          "type": "address"
        }
      ],
      "name": "Paused",
      "type": "event"
    },
    {
      "anonymous": false,
      "inputs": [
        {
          "indexed": false,
          "internalType": "address",
          "name": "account",
          "type": "address"
        }
      ],
      "name": "Unpaused",
      "type": "event"
    },
    {
      "anonymous": false,
      "inputs": [
        {
          "indexed": true,
          "internalType": "address",
          "name": "user",
          "type": "address"
        },
        {
          "indexed": false,
          "internalType": "uint256",
          "name": "amount",
          "type": "uint256"
        }
      ],
      "name": "UserMigrated",
      "type": "event"
    },
    {
      "inputs": [],
      "name": "MIGRATION_TIMELOCK",
      "outputs": [
        {
          "internalType": "uint256",
          "name": "",
          "type": "uint256"
        }
      ],
      "stateMutability": "view",
      "type": "function"
    },
    {
      "inputs": [
        {
          "internalType": "address",
          "name": "_newVaultAddress",
          "type": "address"
        },
        {
          "internalType": "address",
          "name": "_newTokenAddress",
          "type": "address"
        }
      ],
      "name": "announceMigration",
      "outputs": [],
      "stateMutability": "nonpayable",
      "type": "function"
    },
    {
      "inputs": [
        {
          "internalType": "address",
          "name": "user",
          "type": "address"
        }
      ],
      "name": "canMigrate",
      "outputs": [
        {
          "internalType": "bool",
          "name": "",
          "type": "bool"
        }
      ],
      "stateMutability": "view",
      "type": "function"
    },
    {
      "inputs": [],
      "name": "cancelMigration",
      "outputs": [],
      "stateMutability": "nonpayable",
      "type": "function"
    },
    {
      "inputs": [],
      "name": "enableMigration",
      "outputs": [],
      "stateMutability": "nonpayable",
      "type": "function"
    },
    {
      "inputs": [],
      "name": "getMigrationStatus",
      "outputs": [
        {
          "internalType": "bool",
          "name": "",
          "type": "bool"
        },
        {
          "internalType": "bool",
          "name": "",
          "type": "bool"
        },
        {
          "internalType": "uint256",
          "name": "",
          "type": "uint256"
        },
        {
          "internalType": "uint256",
          "name": "",
          "type": "uint256"
        },
        {
          "internalType": "address",
          "name": "",
          "type": "address"
        },
        {
          "internalType": "address",
          "name": "",
          "type": "address"
        }
      ],
      "stateMutability": "view",
      "type": "function"
    },
    {
      "inputs": [
        {
          "internalType": "address",
          "name": "",
          "type": "address"
        }
      ],
      "name": "hasMigrated",
      "outputs": [
        {
          "internalType": "bool",
          "name": "",
          "type": "bool"
        }
      ],
      "stateMutability": "view",
      "type": "function"
    },
    {
      "inputs": [],
      "name": "luxfiToken",
      "outputs": [
        {
          "internalType": "contract IERC20",
          "name": "",
          "type": "address"
        }
      ],
      "stateMutability": "view",
      "type": "function"
    },
    {
      "inputs": [],
      "name": "migrate",
      "outputs": [],
      "stateMutability": "nonpayable",
      "type": "function"
    },
    {
      "inputs": [
        {
          "internalType": "address",
          "name": "",
          "type": "address"
        }
      ],
      "name": "migratedAmount",
      "outputs": [
        {
          "internalType": "uint256",
          "name": "",
          "type": "uint256"
        }
      ],
      "stateMutability": "view",
      "type": "function"
    },
    {
      "inputs": [],
      "name": "migrationAnnounced",
      "outputs": [
        {
          "internalType": "bool",
          "name": "",
          "type": "bool"
        }
      ],
      "stateMutability": "view",
      "type": "function"
    },
    {
      "inputs": [],
      "name": "migrationAnnouncedAt",
      "outputs": [
        {
          "internalType": "uint256",
          "name": "",
          "type": "uint256"
        }
      ],
      "stateMutability": "view",
      "type": "function"
    },
    {
      "inputs": [],
      "name": "migrationEnabled",
      "outputs": [
        {
          "internalType": "bool",
          "name": "",
          "type": "bool"
        }
      ],
      "stateMutability": "view",
      "type": "function"
    },
    {
      "inputs": [],
      "name": "newTokenAddress",
      "outputs": [
        {
          "internalType": "address",
          "name": "",
          "type": "address"
        }
      ],
      "stateMutability": "view",
      "type": "function"
    },
    {
      "inputs": [],
      "name": "newVaultAddress",
      "outputs": [
        {
          "internalType": "address",
          "name": "",
          "type": "address"
        }
      ],
      "stateMutability": "view",
      "type": "function"
    },
    {
      "inputs": [],
      "name": "owner",
      "outputs": [
        {
          "internalType": "address",
          "name": "",
          "type": "address"
        }
      ],
      "stateMutability": "view",
      "type": "function"
    },
    {
      "inputs": [],
      "name": "paused",
      "outputs": [
        {
          "internalType": "bool",
          "name": "",
          "type": "bool"
        }
      ],
      "stateMutability": "view",
      "type": "function"
    },
    {
      "inputs": [
        {
          "internalType": "address",
          "name": "token",
          "type": "address"
        },
        {
          "internalType": "uint256",
          "name": "amount",
          "type": "uint256"
        }
      ],
      "name": "recoverTokens",
      "outputs": [],
      "stateMutability": "nonpayable",
      "type": "function"
    },
    {
      "inputs": [],
      "name": "renounceOwnership",
      "outputs": [],
      "stateMutability": "nonpayable",
      "type": "function"
    },
    {
      "inputs": [],
      "name": "totalMigrated",
      "outputs": [
        {
          "internalType": "uint256",
          "name": "",
          "type": "uint256"
        }
      ],
      "stateMutability": "view",
      "type": "function"
    },
    {
      "inputs": [
        {
          "internalType": "address",
          "name": "newOwner",
          "type": "address"
        }
      ],
      "name": "transferOwnership",
      "outputs": [],
      "stateMutability": "nonpayable",
      "type": "function"
    }
  ],
  "bytecode": "0x60803461014757601f610e8738819003918201601f19168301916001600160401b0383118484101761014c5780849260209460405283398101031261014757516001600160a01b038082169182900361014757331561012e576000543360018060a01b0319821617600055604051913391167f8be0079c531659141344cd1fd0a4f28419497f9722a3daafe3b4186f6b6457e0600080a360017f9b779b17422d0df92223018b32b4d1fa46e071723d6817e2486d003becc55f00556001549060ff196008541660085582156100ec57506001600160a81b03191617600155604051610d2490816101638239f35b62461bcd60e51b815260206004820152601560248201527f496e76616c696420746f6b656e206164647265737300000000000000000000006044820152606490fd5b604051631e4fbdf760e01b815260006004820152602490fd5b600080fd5b634e487b7160e01b600052604160045260246000fdfe6040608081526004908136101561001557600080fd5b600091823560e01c8063069c9fae14610ad957806310639ea014610a635780631a7146f614610969578063283c184a146109315780632adb48c61461091257806335b944bf146108eb57806337689c8d146108c25780635c975abb1461089d5780636b9a9dd314610874578063715018a61461081a57806373c02b771461068b5780637de07cea146105a55780638da5cb5b1461057d5780638fd3ab80146102f857806395a0f5eb146102d9578063a376c5ce146102b5578063a415c02c14610218578063adc0ea63146101ef578063d7625c88146101b3578063e4bfffd7146101915763f2fde38b1461010857600080fd5b3461018d57602036600319011261018d57610121610bee565b9061012a610c09565b6001600160a01b0391821692831561017757505082546001600160a01b0319811683178455167f8be0079c531659141344cd1fd0a4f28419497f9722a3daafe3b4186f6b6457e08380a380f35b51631e4fbdf760e01b8152908101849052602490fd5b8280fd5b5050346101af57816003193601126101af57602090516203f4808152f35b5080fd5b503461018d57602036600319011261018d5760209260ff918391906001600160a01b036101de610bee565b168252855220541690519015158152f35b5050346101af57816003193601126101af5760015490516001600160a01b039091168152602090f35b5091346102b257806003193601126102b25760ff600854169160015491836000146102a957600754906203f4808201809211610296575060c094505b6006546002546003548451961515875260a095861c60ff16151560208801529386019290925260608501526001600160a01b0390811660808501521690820152f35b634e487b7160e01b815260118652602490fd5b60c09450610254565b80fd5b5050346101af57816003193601126101af5760209060ff6008541690519015158152f35b5050346101af57816003193601126101af576020906006549051908152f35b503461018d578260031936011261018d577f9b779b17422d0df92223018b32b4d1fa46e071723d6817e2486d003becc55f0090600282541461056f576002825560019283549060ff8260a01c16156105355733865260209183835260ff82882054166105005781516370a0823160e01b81523385820152936001600160a01b039184908690602490829086165afa9485156104f65788956104c3575b508415610489573388528084528288208760ff1982541617905560058452848389205560065485810180911161047657600655818754168351916323b872dd60e01b8a523381523060245286604452858a60648180865af1898b5114811615610458575b8386528a60605215610445575050509061043a847f318600f3728e51b39d1e8ec047befe02b9642059a8996e1ad8da58227a4c9d859493339060035416610c6d565b519283523392a25580f35b635274afe760e01b835282015260249150fd5b8981151661046d57823b15153d1516166103f8565b833d8c823e3d90fd5b634e487b7160e01b895260118252602489fd5b825162461bcd60e51b815290810184905260146024820152734e6f20746f6b656e7320746f206d69677261746560601b6044820152606490fd5b9094508381813d83116104ef575b6104db8183610c35565b810103126104eb57519338610394565b8780fd5b503d6104d1565b83513d8a823e3d90fd5b505162461bcd60e51b815291820152601060248201526f105b1c9958591e481b5a59dc985d195960821b604482015260649150fd5b5162461bcd60e51b81526020818401526015602482015274135a59dc985d1a5bdb881b9bdd08195b98589b1959605a1b6044820152606490fd5b8251633ee5aeb560e01b8152fd5b5050346101af57816003193601126101af57905490516001600160a01b039091168152602090f35b50903461018d57602092836003193601126102b2576105c2610bee565b8460015460ff8160a01c16958661066d575b866105e5575b828787519015158152f35b85516370a0823160e01b81526001600160a01b0394851691810191909152949550929392909183916024918391165afa918215610662578092610632575b505015159038808481806105da565b9091508382813d831161065b575b61064a8183610c35565b810103126102b25750513880610623565b503d610640565b8351903d90823e3d90fd5b6001600160a01b03841685528083528585205460ff161596506105d4565b509190346101af57806003193601126101af576106a6610bee565b906024356001600160a01b038181169291839003610816576106c6610c09565b6008549360ff85166107df57169283156107a457821561076957600190836bffffffffffffffffffffffff60a01b8681600254161760025560035416176003554260075560ff1916176008556203f48042019182421161075657815193845260208401528201527f9a2f466a40d0995eddbc941ea823d21faf04a7e161d61084c341ae56b2b6b8fe90606090a180f35b634e487b7160e01b855260118652602485fd5b815162461bcd60e51b81526020818801526015602482015274496e76616c696420746f6b656e206164647265737360581b6044820152606490fd5b815162461bcd60e51b81526020818801526015602482015274496e76616c6964207661756c74206164647265737360581b6044820152606490fd5b825162461bcd60e51b81526020818901526011602482015270105b1c9958591e48185b9b9bdd5b98d959607a1b6044820152606490fd5b8480fd5b83346102b257806003193601126102b257610833610c09565b80546001600160a01b03198116825581906001600160a01b03167f8be0079c531659141344cd1fd0a4f28419497f9722a3daafe3b4186f6b6457e08280a380f35b5050346101af57816003193601126101af5760025490516001600160a01b039091168152602090f35b5050346101af57816003193601126101af5760ff6020925460a01c1690519015158152f35b5050346101af57816003193601126101af5760035490516001600160a01b039091168152602090f35b5050346101af57816003193601126101af5760209060ff60015460a01c1690519015158152f35b5050346101af57816003193601126101af576020906007549051908152f35b5050346101af5760203660031901126101af5760209181906001600160a01b03610959610bee565b1681526005845220549051908152f35b50903461018d578260031936011261018d57610983610c09565b60ff6008541615610a2c576007546203f4808101809111610a195742106109df576001805460ff60a01b1916600160a01b179055827f2a2bbe8c6b167bd72454e6acb7983ff3e74b726cc68ec561790007e09808a50d8180a180f35b906020606492519162461bcd60e51b83528201526014602482015273151a5b595b1bd8dac81b9bdd08195e1c1a5c995960621b6044820152fd5b634e487b7160e01b845260118352602484fd5b906020606492519162461bcd60e51b83528201526011602482015270139bdd08185b9b9bdd5b98d959081e595d607a1b6044820152fd5b83346102b257806003193601126102b257610a7c610c09565b60ff60a01b196001541660015560ff19600854166008556bffffffffffffffffffffffff60a01b8060025416600255600354166003557f29183829efed7c15f37ba982c36934966b558232f770f334108ac30e4301333a8180a180f35b508290346101af57826003193601126101af57610af4610bee565b90610afd610c09565b6001549060ff8260a01c16610b9c576001600160a01b039283169183168214801590610b92575b15610b3f575090610b3c916024359184541690610c6d565b80f35b608490602086519162461bcd60e51b8352820152602760248201527f43616e6e6f7420647261696e20636f6c6c6563746564206d6967726174696f6e60448201526620746f6b656e7360c81b6064820152fd5b5060065415610b24565b608490602086519162461bcd60e51b8352820152602660248201527f43616e6e6f74207265636f76657220647572696e6720616374697665206d69676044820152653930ba34b7b760d11b6064820152fd5b600435906001600160a01b0382168203610c0457565b600080fd5b6000546001600160a01b03163303610c1d57565b60405163118cdaa760e01b8152336004820152602490fd5b90601f8019910116810190811067ffffffffffffffff821117610c5757604052565b634e487b7160e01b600052604160045260246000fd5b60405163a9059cbb60e01b60009081526001600160a01b039384166004526024949094529260209060448180855af1600160005114811615610cce575b8360405215610cb857505050565b635274afe760e01b835216600482015260249150fd5b6001811516610ce457813b15153d151616610caa565b833d6000823e3d90fdfea2646970667358221220f543e6f164f9d9d2540ec4b315623882c053880ad57b4b73b898d243ba8eb41964736f6c63430008140033",
  "linkReferences": {},
  "deployedLinkReferences": {}
}