{
  "_format": "hh-sol-artifact-1",
  "contractName": "VaultReentrancyAttacker",
  "sourceName": "contracts/mocks/VaultReentrancyAttacker.sol",
  "abi": [
    {
      "inputs": [
        {
          "internalType": "address",
          "name": "vault_",
          "type": "address"
        },
        {
          "internalType": "address",
          "name": "token_",
          "type": "address"
        }
      ],
      "stateMutability": "nonpayable",
      "type": "constructor"
    },
    {
      "stateMutability": "payable",
      "type": "fallback"
    },
    {
      "inputs": [
        {
          "internalType": "uint256",
          "name": "brandId",
          "type": "uint256"
        },
        {
          "internalType": "uint256",
          "name": "amount",
          "type": "uint256"
        },
        {
          "internalType": "uint256",
          "name": "lockDays",
          "type": "uint256"
        }
      ],
      "name": "attack",
      "outputs": [],
      "stateMutability": "nonpayable",
      "type": "function"
    },
    {
      "inputs": [],
      "name": "attackAmount",
      "outputs": [
        {
          "internalType": "uint256",
          "name": "",
          "type": "uint256"
        }
      ],
      "stateMutability": "view",
      "type": "function"
    },
    {
      "inputs": [],
      "name": "attackBrandId",
      "outputs": [
        {
          "internalType": "uint256",
          "name": "",
          "type": "uint256"
        }
      ],
      "stateMutability": "view",
      "type": "function"
    },
    {
      "inputs": [],
      "name": "attacking",
      "outputs": [
        {
          "internalType": "bool",
          "name": "",
          "type": "bool"
        }
      ],
      "stateMutability": "view",
      "type": "function"
    },
    {
      "inputs": [
        {
          "internalType": "address",
          "name": "",
          "type": "address"
        },
        {
          "internalType": "uint256",
          "name": "",
          "type": "uint256"
        }
      ],
      "name": "onERC20Received",
      "outputs": [],
      "stateMutability": "nonpayable",
      "type": "function"
    },
    {
      "inputs": [],
      "name": "token",
      "outputs": [
        {
          "internalType": "contract IERC20",
          "name": "",
          "type": "address"
        }
      ],
      "stateMutability": "view",
      "type": "function"
    },
    {
      "inputs": [
        {
          "internalType": "uint256",
          "name": "brandId",
          "type": "uint256"
        },
        {
          "internalType": "uint256",
          "name": "amount",
          "type": "uint256"
        }
      ],
      "name": "triggerReentrantUnstake",
      "outputs": [],
      "stateMutability": "nonpayable",
      "type": "function"
    },
    {
      "inputs": [],
      "name": "vault",
      "outputs": [
        {
          "internalType": "contract IParticipationVault",
          "name": "",
          "type": "address"
        }
      ],
      "stateMutability": "view",
      "type": "function"
    },
    {
      "stateMutability": "payable",
      "type": "receive"
    }
  ],
  "bytecode": "0x60803461008d57601f6104dd38819003918201601f19168301916001600160401b0383118484101761009257808492604094855283398101031261008d57610052602061004b836100a8565b92016100a8565b600080546001600160a01b039384166001600160a01b0319918216179091556001805492909316911617905560405161042090816100bd8239f35b600080fd5b634e487b7160e01b600052604160045260246000fd5b51906001600160a01b038216820361008d5756fe6080604081815260049182361015610025575b505050361561002357610023610369565b005b600092833560e01c91826337ef3077146102b5575081633c0bbcd914610292578163407f85f8146101505781638819356514610131578163bc04f0af146100fd57508063c514774e146100df578063fbfa77cf146100b85763fc0c546a1461008d5780610012565b346100b457816003193601126100b45760015490516001600160a01b039091168152602090f35b5080fd5b50346100b457816003193601126100b457905490516001600160a01b039091168152602090f35b50346100b457816003193601126100b4576020906002549051908152f35b9190503461012d573660031901126100b457356001600160a01b0381160361012a57610127610369565b80f35b80fd5b8280fd5b5050346100b457816003193601126100b4576020906003549051908152f35b90503461012d57606036600319011261012d57828135916024359360018060a01b0383602082600154166044848454168651948593849263095ea7b360e01b84528a84015260001960248401525af1801561028857610219575b5083541691823b15610215578460648592838551968794859363531c797160e11b85528401528a602484015260443560448401525af190811561020c57506101f8575b505060025560035580f35b6102019061033f565b61012d5782386101ed565b513d84823e3d90fd5b8380fd5b909192935060203d8111610281575b601f8101601f1916820167ffffffffffffffff81118382101761026c5782859493926020928b9897528101031261026857518015150361021557386101aa565b8480fd5b604186634e487b7160e01b6000525260246000fd5b503d610228565b83513d87823e3d90fd5b82843461012a578060031936011261012a575060ff602092541690519015158152f35b9092915034610215578160031936011261021557825460ff199081166001178455845490929085906001600160a01b0316803b156100b457604484838193639e2c8a5b60e01b835289358a84015260243560248401525af19081156103365750610323575b50815416905580f35b61032f9093919361033f565b913861031a565b513d86823e3d90fd5b67ffffffffffffffff811161035357604052565b634e487b7160e01b600052604160045260246000fd5b60045460ff81166103775750565b60ff1916600455600080546002546003546001600160a01b03909216929160011c90833b1561012d579060448392836040519687948593639e2c8a5b60e01b8552600485015260248401525af19081156103de57506103d35750565b6103dc9061033f565b565b604051903d90823e3d90fdfea2646970667358221220ca9b79bb80a26cd9d987ffac1061e939ac71b177ef4e28c2dfc471ea12ff39a164736f6c63430008140033",
  "linkReferences": {},
  "deployedLinkReferences": {}
}