{
  "_format": "hh-sol-artifact-1",
  "contractName": "TransparencyOracle",
  "sourceName": "contracts/TransparencyOracle.sol",
  "abi": [
    {
      "inputs": [],
      "stateMutability": "nonpayable",
      "type": "constructor"
    },
    {
      "inputs": [],
      "name": "EnforcedPause",
      "type": "error"
    },
    {
      "inputs": [],
      "name": "ExpectedPause",
      "type": "error"
    },
    {
      "inputs": [
        {
          "internalType": "address",
          "name": "owner",
          "type": "address"
        }
      ],
      "name": "OwnableInvalidOwner",
      "type": "error"
    },
    {
      "inputs": [
        {
          "internalType": "address",
          "name": "account",
          "type": "address"
        }
      ],
      "name": "OwnableUnauthorizedAccount",
      "type": "error"
    },
    {
      "inputs": [],
      "name": "ReentrancyGuardReentrantCall",
      "type": "error"
    },
    {
      "anonymous": false,
      "inputs": [
        {
          "indexed": true,
          "internalType": "address",
          "name": "previousOwner",
          "type": "address"
        },
        {
          "indexed": true,
          "internalType": "address",
          "name": "newOwner",
          "type": "address"
        }
      ],
      "name": "OwnershipTransferred",
      "type": "event"
    },
    {
      "anonymous": false,
      "inputs": [
        {
          "indexed": false,
          "internalType": "address",
          "name": "account",
          "type": "address"
        }
      ],
      "name": "Paused",
      "type": "event"
    },
    {
      "anonymous": false,
      "inputs": [
        {
          "indexed": true,
          "internalType": "uint256",
          "name": "reportId",
          "type": "uint256"
        },
        {
          "indexed": true,
          "internalType": "uint256",
          "name": "brandId",
          "type": "uint256"
        },
        {
          "indexed": false,
          "internalType": "bytes32",
          "name": "merkleRoot",
          "type": "bytes32"
        }
      ],
      "name": "ReportSubmitted",
      "type": "event"
    },
    {
      "anonymous": false,
      "inputs": [
        {
          "indexed": true,
          "internalType": "uint256",
          "name": "reportId",
          "type": "uint256"
        }
      ],
      "name": "ReportVerified",
      "type": "event"
    },
    {
      "anonymous": false,
      "inputs": [
        {
          "indexed": true,
          "internalType": "address",
          "name": "reporter",
          "type": "address"
        },
        {
          "indexed": false,
          "internalType": "bool",
          "name": "status",
          "type": "bool"
        }
      ],
      "name": "ReporterAuthorized",
      "type": "event"
    },
    {
      "anonymous": false,
      "inputs": [
        {
          "indexed": false,
          "internalType": "address",
          "name": "account",
          "type": "address"
        }
      ],
      "name": "Unpaused",
      "type": "event"
    },
    {
      "inputs": [
        {
          "internalType": "address",
          "name": "",
          "type": "address"
        }
      ],
      "name": "authorizedReporters",
      "outputs": [
        {
          "internalType": "bool",
          "name": "",
          "type": "bool"
        }
      ],
      "stateMutability": "view",
      "type": "function"
    },
    {
      "inputs": [
        {
          "internalType": "uint256",
          "name": "",
          "type": "uint256"
        },
        {
          "internalType": "uint256",
          "name": "",
          "type": "uint256"
        }
      ],
      "name": "brandReports",
      "outputs": [
        {
          "internalType": "uint256",
          "name": "",
          "type": "uint256"
        }
      ],
      "stateMutability": "view",
      "type": "function"
    },
    {
      "inputs": [
        {
          "internalType": "uint256",
          "name": "brandId",
          "type": "uint256"
        }
      ],
      "name": "getBrandReports",
      "outputs": [
        {
          "internalType": "uint256[]",
          "name": "",
          "type": "uint256[]"
        }
      ],
      "stateMutability": "view",
      "type": "function"
    },
    {
      "inputs": [
        {
          "internalType": "uint256",
          "name": "brandId",
          "type": "uint256"
        }
      ],
      "name": "getLatestReport",
      "outputs": [
        {
          "components": [
            {
              "internalType": "uint256",
              "name": "brandId",
              "type": "uint256"
            },
            {
              "internalType": "uint256",
              "name": "periodStart",
              "type": "uint256"
            },
            {
              "internalType": "uint256",
              "name": "periodEnd",
              "type": "uint256"
            },
            {
              "internalType": "uint256",
              "name": "totalRevenue",
              "type": "uint256"
            },
            {
              "internalType": "bytes32",
              "name": "merkleRoot",
              "type": "bytes32"
            },
            {
              "internalType": "uint256",
              "name": "submittedAt",
              "type": "uint256"
            },
            {
              "internalType": "bool",
              "name": "verified",
              "type": "bool"
            }
          ],
          "internalType": "struct TransparencyOracle.RevenueReport",
          "name": "",
          "type": "tuple"
        }
      ],
      "stateMutability": "view",
      "type": "function"
    },
    {
      "inputs": [
        {
          "internalType": "uint256",
          "name": "id",
          "type": "uint256"
        }
      ],
      "name": "getReport",
      "outputs": [
        {
          "components": [
            {
              "internalType": "uint256",
              "name": "brandId",
              "type": "uint256"
            },
            {
              "internalType": "uint256",
              "name": "periodStart",
              "type": "uint256"
            },
            {
              "internalType": "uint256",
              "name": "periodEnd",
              "type": "uint256"
            },
            {
              "internalType": "uint256",
              "name": "totalRevenue",
              "type": "uint256"
            },
            {
              "internalType": "bytes32",
              "name": "merkleRoot",
              "type": "bytes32"
            },
            {
              "internalType": "uint256",
              "name": "submittedAt",
              "type": "uint256"
            },
            {
              "internalType": "bool",
              "name": "verified",
              "type": "bool"
            }
          ],
          "internalType": "struct TransparencyOracle.RevenueReport",
          "name": "",
          "type": "tuple"
        }
      ],
      "stateMutability": "view",
      "type": "function"
    },
    {
      "inputs": [],
      "name": "owner",
      "outputs": [
        {
          "internalType": "address",
          "name": "",
          "type": "address"
        }
      ],
      "stateMutability": "view",
      "type": "function"
    },
    {
      "inputs": [],
      "name": "pause",
      "outputs": [],
      "stateMutability": "nonpayable",
      "type": "function"
    },
    {
      "inputs": [],
      "name": "paused",
      "outputs": [
        {
          "internalType": "bool",
          "name": "",
          "type": "bool"
        }
      ],
      "stateMutability": "view",
      "type": "function"
    },
    {
      "inputs": [],
      "name": "renounceOwnership",
      "outputs": [],
      "stateMutability": "nonpayable",
      "type": "function"
    },
    {
      "inputs": [],
      "name": "reportCount",
      "outputs": [
        {
          "internalType": "uint256",
          "name": "",
          "type": "uint256"
        }
      ],
      "stateMutability": "view",
      "type": "function"
    },
    {
      "inputs": [
        {
          "internalType": "uint256",
          "name": "",
          "type": "uint256"
        }
      ],
      "name": "reports",
      "outputs": [
        {
          "internalType": "uint256",
          "name": "brandId",
          "type": "uint256"
        },
        {
          "internalType": "uint256",
          "name": "periodStart",
          "type": "uint256"
        },
        {
          "internalType": "uint256",
          "name": "periodEnd",
          "type": "uint256"
        },
        {
          "internalType": "uint256",
          "name": "totalRevenue",
          "type": "uint256"
        },
        {
          "internalType": "bytes32",
          "name": "merkleRoot",
          "type": "bytes32"
        },
        {
          "internalType": "uint256",
          "name": "submittedAt",
          "type": "uint256"
        },
        {
          "internalType": "bool",
          "name": "verified",
          "type": "bool"
        }
      ],
      "stateMutability": "view",
      "type": "function"
    },
    {
      "inputs": [
        {
          "internalType": "address",
          "name": "reporter",
          "type": "address"
        },
        {
          "internalType": "bool",
          "name": "authorized",
          "type": "bool"
        }
      ],
      "name": "setReporter",
      "outputs": [],
      "stateMutability": "nonpayable",
      "type": "function"
    },
    {
      "inputs": [
        {
          "internalType": "uint256",
          "name": "brandId",
          "type": "uint256"
        },
        {
          "internalType": "uint256",
          "name": "periodStart",
          "type": "uint256"
        },
        {
          "internalType": "uint256",
          "name": "periodEnd",
          "type": "uint256"
        },
        {
          "internalType": "uint256",
          "name": "totalRevenue",
          "type": "uint256"
        },
        {
          "internalType": "bytes32",
          "name": "merkleRoot",
          "type": "bytes32"
        }
      ],
      "name": "submitReport",
      "outputs": [
        {
          "internalType": "uint256",
          "name": "",
          "type": "uint256"
        }
      ],
      "stateMutability": "nonpayable",
      "type": "function"
    },
    {
      "inputs": [
        {
          "internalType": "address",
          "name": "newOwner",
          "type": "address"
        }
      ],
      "name": "transferOwnership",
      "outputs": [],
      "stateMutability": "nonpayable",
      "type": "function"
    },
    {
      "inputs": [],
      "name": "unpause",
      "outputs": [],
      "stateMutability": "nonpayable",
      "type": "function"
    },
    {
      "inputs": [
        {
          "internalType": "uint256",
          "name": "reportId",
          "type": "uint256"
        },
        {
          "internalType": "bytes32",
          "name": "leaf",
          "type": "bytes32"
        },
        {
          "internalType": "bytes32[]",
          "name": "proof",
          "type": "bytes32[]"
        }
      ],
      "name": "verifyLeaf",
      "outputs": [
        {
          "internalType": "bool",
          "name": "",
          "type": "bool"
        }
      ],
      "stateMutability": "view",
      "type": "function"
    },
    {
      "inputs": [
        {
          "internalType": "uint256",
          "name": "reportId",
          "type": "uint256"
        }
      ],
      "name": "verifyReport",
      "outputs": [],
      "stateMutability": "nonpayable",
      "type": "function"
    }
  ],
  "bytecode": "0x6080806040523461009e5733156100885760008054336001600160a01b03198216811783556040519290916001600160a01b0316907f8be0079c531659141344cd1fd0a4f28419497f9722a3daafe3b4186f6b6457e09080a360017f9b779b17422d0df92223018b32b4d1fa46e071723d6817e2486d003becc55f0055610cde90816100a48239f35b631e4fbdf760e01b815260006004820152602490fd5b600080fdfe6040608081526004908136101561001557600080fd5b600091823560e01c806309208a7514610a42578063185c6f8414610a235780633a41429a146109e75780633f4ba83a1461097a5780634e7f9b19146108f85780635c975abb146108d357806364bab3ed14610781578063715018a61461072757806374bfa762146106e15780637c421371146106405780638456cb59146105e15780638da5cb5b146105b95780639e8a50da14610350578063c54afb1414610258578063c942adf7146101ed578063e1bb5133146101655763f2fde38b146100dc57600080fd5b34610161576020366003190112610161576100f5610aeb565b906100fe610b7e565b6001600160a01b0391821692831561014b57505082546001600160a01b0319811683178455167f8be0079c531659141344cd1fd0a4f28419497f9722a3daafe3b4186f6b6457e08380a380f35b51631e4fbdf760e01b8152908101849052602490fd5b8280fd5b50903461016157806003193601126101615761017f610aeb565b9060243590811515908183036101e9576101e16020937fd47f4d9453e9791c794cf5aa87230761df19291606f7b48627c71d934e672714956101bf610b7e565b60018060a01b03169687895285528288209060ff801983541691151516179055565b51908152a280f35b8580fd5b5034610161576020366003190112610161578160e0938235815260026020522080549260018201549260028301546003840154918401549260ff600660058701549601541695815197885260208801528601526060850152608084015260a0830152151560c0820152f35b5091903461034c57606036600319011261034c576044359067ffffffffffffffff80831161034857366023840112156103485782850135908111610348576024830192602436918360051b0101116103485791843584526020946002865282852001549260243594915b8183106102d3575050505191148152f35b90919461031b906102e5878585610c60565b35811015610322576102f8878585610c60565b358551908982019283528682015285815261031281610c01565b51902095610baa565b91906102c2565b61032d878585610c60565b35908551908982019283528682015285815261031281610c01565b8380fd5b5080fd5b5091903461034c5760a036600319011261034c5782359160243592604435946084359061037b610c3f565b7f9b779b17422d0df92223018b32b4d1fa46e071723d6817e2486d003becc55f009360028554146105aa576002855533815260209682885260ff87832054168015610597575b15610563578089111561052f5783156104f8578798600661046b92899a6001549b8c926103ed84610baa565b6001558151956103fc87610bcf565b8b87528387019182528287019081526060870191606435835260808801938c8552600260a08a019642885260c08b01988d8a528d52528a2097518855516001880155516002870155516003860155518785015551600584015551151591019060ff801983541691151516179055565b8381526003885285812090815492680100000000000000008410156104e55750508760019594936104c3847f4f8b8d2a1fcd51b1f3509b143b14228fa7fe1a428e9d7d23f477efec82ea21a694898c97018155610b50565b81549060031b9086821b91600019901b19161790558751908152a35551908152f35b634e487b7160e01b825260419052602490fd5b865162461bcd60e51b81528084018990526011602482015270115b5c1d1e481b595c9adb19481c9bdbdd607a1b6044820152606490fd5b865162461bcd60e51b8152808401899052600e60248201526d125b9d985b1a59081c195c9a5bd960921b6044820152606490fd5b865162461bcd60e51b8152808401899052600e60248201526d139bdd08185d5d1a1bdc9a5e995960921b6044820152606490fd5b5081546001600160a01b031633146103c1565b508451633ee5aeb560e01b8152fd5b50503461034c578160031936011261034c57905490516001600160a01b039091168152602090f35b50503461034c578160031936011261034c5760207f62e78cea01bee320cd4e420270b5ea74000d11b0c9f74754ebdbfc544b05a2589161061f610b7e565b610627610c3f565b835460ff60a01b1916600160a01b17845551338152a180f35b5082346106de576020918260031936011261034c5792919235815260038352818120908251808584549182815201908194845286842090845b8181106106ca575050508161068f910382610c1d565b83519485948186019282875251809352850193925b8281106106b357505050500390f35b8351855286955093810193928101926001016106a4565b825484529288019260019283019201610679565b80fd5b5091346106de57816003193601126106de576024359235815260036020528181209081548410156106de575060209261071991610b50565b90549060031b1c9051908152f35b83346106de57806003193601126106de57610740610b7e565b80546001600160a01b03198116825581906001600160a01b03167f8be0079c531659141344cd1fd0a4f28419497f9722a3daafe3b4186f6b6457e08280a380f35b5091903461034c57602091826003193601126106de5761079f610c70565b5083358152600383528181208251808286829454938481520190855286852092855b888282106108bd575050506107d892500382610c1d565b80511561088d578051600019810190811161087a57815181101561086757948360ff93866006946108639960051b010151815260028752209084519561081d87610bcf565b82548752600183015490870152600282015485870152600382015460608701528101546080860152600581015460a0860152015416151560c08301525191829182610b06565b0390f35b634e487b7160e01b835260328652602483fd5b634e487b7160e01b835260118652602483fd5b825162461bcd60e51b8152808601859052600a6024820152694e6f207265706f72747360b01b6044820152606490fd5b85548452600195860195879550930192016107c1565b50503461034c578160031936011261034c5760ff6020925460a01c1690519015158152f35b5090346101615760203660031901126101615760ff6006826108639561091c610c70565b508535815260026020522083519461093386610bcf565b8154865260018201546020870152600282015485870152600382015460608701528101546080860152600581015460a0860152015416151560c08301525191829182610b06565b5034610161578260031936011261016157610993610b7e565b82549060ff8260a01c16156109d9575060ff60a01b19168255513381527f5db9ee0a495bf2e6ff9c91a7834c1ba4fdd244a5e8aa4e537bd38aeae4b073aa90602090a180f35b8251638dfc202b60e01b8152fd5b50346101615760203660031901126101615760209260ff918391906001600160a01b03610a12610aeb565b168252855220541690519015158152f35b50503461034c578160031936011261034c576020906001549051908152f35b50903461016157602036600319011261016157813591610a60610b7e565b828452600260205260ff6006838620015416610ab6575081835260026020528220600601805460ff191660011790557f7797a07391cf1639d6cce21ffa030d2c49740fd9817f66971d317c47d6c543a18280a280f35b6020606492519162461bcd60e51b8352820152601060248201526f105b1c9958591e481d995c9a599a595960821b6044820152fd5b600435906001600160a01b0382168203610b0157565b600080fd5b91909160c08060e0830194805184526020810151602085015260408101516040850152606081015160608501526080810151608085015260a081015160a085015201511515910152565b8054821015610b685760005260206000200190600090565b634e487b7160e01b600052603260045260246000fd5b6000546001600160a01b03163303610b9257565b60405163118cdaa760e01b8152336004820152602490fd5b6000198114610bb95760010190565b634e487b7160e01b600052601160045260246000fd5b60e0810190811067ffffffffffffffff821117610beb57604052565b634e487b7160e01b600052604160045260246000fd5b6060810190811067ffffffffffffffff821117610beb57604052565b90601f8019910116810190811067ffffffffffffffff821117610beb57604052565b60ff60005460a01c16610c4e57565b60405163d93c066560e01b8152600490fd5b9190811015610b685760051b0190565b60405190610c7d82610bcf565b8160c06000918281528260208201528260408201528260608201528260808201528260a0820152015256fea2646970667358221220bb20c9dc07a73be7b5d2639d562dccbb21315f04dd4e3f4a64895898ddf8745864736f6c63430008140033",
  "linkReferences": {},
  "deployedLinkReferences": {}
}