{
  "_format": "hh-sol-artifact-1",
  "contractName": "BrandRegistry",
  "sourceName": "contracts/BrandRegistry.sol",
  "abi": [
    {
      "inputs": [],
      "stateMutability": "nonpayable",
      "type": "constructor"
    },
    {
      "inputs": [],
      "name": "EnforcedPause",
      "type": "error"
    },
    {
      "inputs": [],
      "name": "ExpectedPause",
      "type": "error"
    },
    {
      "inputs": [
        {
          "internalType": "address",
          "name": "owner",
          "type": "address"
        }
      ],
      "name": "OwnableInvalidOwner",
      "type": "error"
    },
    {
      "inputs": [
        {
          "internalType": "address",
          "name": "account",
          "type": "address"
        }
      ],
      "name": "OwnableUnauthorizedAccount",
      "type": "error"
    },
    {
      "anonymous": false,
      "inputs": [
        {
          "indexed": true,
          "internalType": "uint256",
          "name": "id",
          "type": "uint256"
        },
        {
          "indexed": false,
          "internalType": "string",
          "name": "name",
          "type": "string"
        },
        {
          "indexed": false,
          "internalType": "address",
          "name": "wallet",
          "type": "address"
        }
      ],
      "name": "BrandRegistered",
      "type": "event"
    },
    {
      "anonymous": false,
      "inputs": [
        {
          "indexed": true,
          "internalType": "uint256",
          "name": "id",
          "type": "uint256"
        },
        {
          "indexed": false,
          "internalType": "uint256",
          "name": "revenue",
          "type": "uint256"
        }
      ],
      "name": "BrandRevenueUpdated",
      "type": "event"
    },
    {
      "anonymous": false,
      "inputs": [
        {
          "indexed": true,
          "internalType": "uint256",
          "name": "id",
          "type": "uint256"
        },
        {
          "indexed": false,
          "internalType": "enum BrandRegistry.BrandStatus",
          "name": "status",
          "type": "uint8"
        }
      ],
      "name": "BrandStatusUpdated",
      "type": "event"
    },
    {
      "anonymous": false,
      "inputs": [
        {
          "indexed": true,
          "internalType": "address",
          "name": "previousOwner",
          "type": "address"
        },
        {
          "indexed": true,
          "internalType": "address",
          "name": "newOwner",
          "type": "address"
        }
      ],
      "name": "OwnershipTransferred",
      "type": "event"
    },
    {
      "anonymous": false,
      "inputs": [
        {
          "indexed": true,
          "internalType": "uint256",
          "name": "id",
          "type": "uint256"
        },
        {
          "indexed": false,
          "internalType": "bool",
          "name": "connected",
          "type": "bool"
        }
      ],
      "name": "POSConnected",
      "type": "event"
    },
    {
      "anonymous": false,
      "inputs": [
        {
          "indexed": false,
          "internalType": "address",
          "name": "account",
          "type": "address"
        }
      ],
      "name": "Paused",
      "type": "event"
    },
    {
      "anonymous": false,
      "inputs": [
        {
          "indexed": false,
          "internalType": "address",
          "name": "account",
          "type": "address"
        }
      ],
      "name": "Unpaused",
      "type": "event"
    },
    {
      "inputs": [
        {
          "internalType": "uint256",
          "name": "id",
          "type": "uint256"
        }
      ],
      "name": "activateBrand",
      "outputs": [],
      "stateMutability": "nonpayable",
      "type": "function"
    },
    {
      "inputs": [],
      "name": "brandCount",
      "outputs": [
        {
          "internalType": "uint256",
          "name": "",
          "type": "uint256"
        }
      ],
      "stateMutability": "view",
      "type": "function"
    },
    {
      "inputs": [
        {
          "internalType": "uint256",
          "name": "",
          "type": "uint256"
        }
      ],
      "name": "brands",
      "outputs": [
        {
          "internalType": "string",
          "name": "name",
          "type": "string"
        },
        {
          "internalType": "string",
          "name": "category",
          "type": "string"
        },
        {
          "internalType": "string",
          "name": "country",
          "type": "string"
        },
        {
          "internalType": "address",
          "name": "brandWallet",
          "type": "address"
        },
        {
          "internalType": "enum BrandRegistry.BrandStatus",
          "name": "status",
          "type": "uint8"
        },
        {
          "internalType": "uint256",
          "name": "registeredAt",
          "type": "uint256"
        },
        {
          "internalType": "uint256",
          "name": "monthlyRevenue",
          "type": "uint256"
        },
        {
          "internalType": "bool",
          "name": "posConnected",
          "type": "bool"
        }
      ],
      "stateMutability": "view",
      "type": "function"
    },
    {
      "inputs": [],
      "name": "getAllBrands",
      "outputs": [
        {
          "components": [
            {
              "internalType": "string",
              "name": "name",
              "type": "string"
            },
            {
              "internalType": "string",
              "name": "category",
              "type": "string"
            },
            {
              "internalType": "string",
              "name": "country",
              "type": "string"
            },
            {
              "internalType": "address",
              "name": "brandWallet",
              "type": "address"
            },
            {
              "internalType": "enum BrandRegistry.BrandStatus",
              "name": "status",
              "type": "uint8"
            },
            {
              "internalType": "uint256",
              "name": "registeredAt",
              "type": "uint256"
            },
            {
              "internalType": "uint256",
              "name": "monthlyRevenue",
              "type": "uint256"
            },
            {
              "internalType": "bool",
              "name": "posConnected",
              "type": "bool"
            }
          ],
          "internalType": "struct BrandRegistry.Brand[]",
          "name": "",
          "type": "tuple[]"
        }
      ],
      "stateMutability": "view",
      "type": "function"
    },
    {
      "inputs": [
        {
          "internalType": "uint256",
          "name": "id",
          "type": "uint256"
        }
      ],
      "name": "getBrand",
      "outputs": [
        {
          "components": [
            {
              "internalType": "string",
              "name": "name",
              "type": "string"
            },
            {
              "internalType": "string",
              "name": "category",
              "type": "string"
            },
            {
              "internalType": "string",
              "name": "country",
              "type": "string"
            },
            {
              "internalType": "address",
              "name": "brandWallet",
              "type": "address"
            },
            {
              "internalType": "enum BrandRegistry.BrandStatus",
              "name": "status",
              "type": "uint8"
            },
            {
              "internalType": "uint256",
              "name": "registeredAt",
              "type": "uint256"
            },
            {
              "internalType": "uint256",
              "name": "monthlyRevenue",
              "type": "uint256"
            },
            {
              "internalType": "bool",
              "name": "posConnected",
              "type": "bool"
            }
          ],
          "internalType": "struct BrandRegistry.Brand",
          "name": "",
          "type": "tuple"
        }
      ],
      "stateMutability": "view",
      "type": "function"
    },
    {
      "inputs": [
        {
          "internalType": "uint256",
          "name": "id",
          "type": "uint256"
        }
      ],
      "name": "isBrandActive",
      "outputs": [
        {
          "internalType": "bool",
          "name": "",
          "type": "bool"
        }
      ],
      "stateMutability": "view",
      "type": "function"
    },
    {
      "inputs": [
        {
          "internalType": "address",
          "name": "",
          "type": "address"
        }
      ],
      "name": "isVerifiedBrand",
      "outputs": [
        {
          "internalType": "bool",
          "name": "",
          "type": "bool"
        }
      ],
      "stateMutability": "view",
      "type": "function"
    },
    {
      "inputs": [],
      "name": "owner",
      "outputs": [
        {
          "internalType": "address",
          "name": "",
          "type": "address"
        }
      ],
      "stateMutability": "view",
      "type": "function"
    },
    {
      "inputs": [],
      "name": "pause",
      "outputs": [],
      "stateMutability": "nonpayable",
      "type": "function"
    },
    {
      "inputs": [],
      "name": "paused",
      "outputs": [
        {
          "internalType": "bool",
          "name": "",
          "type": "bool"
        }
      ],
      "stateMutability": "view",
      "type": "function"
    },
    {
      "inputs": [
        {
          "internalType": "string",
          "name": "name",
          "type": "string"
        },
        {
          "internalType": "string",
          "name": "category",
          "type": "string"
        },
        {
          "internalType": "string",
          "name": "country",
          "type": "string"
        },
        {
          "internalType": "address",
          "name": "brandWallet",
          "type": "address"
        }
      ],
      "name": "registerBrand",
      "outputs": [
        {
          "internalType": "uint256",
          "name": "",
          "type": "uint256"
        }
      ],
      "stateMutability": "nonpayable",
      "type": "function"
    },
    {
      "inputs": [],
      "name": "renounceOwnership",
      "outputs": [],
      "stateMutability": "nonpayable",
      "type": "function"
    },
    {
      "inputs": [
        {
          "internalType": "uint256",
          "name": "id",
          "type": "uint256"
        },
        {
          "internalType": "bool",
          "name": "connected",
          "type": "bool"
        }
      ],
      "name": "setPOSConnected",
      "outputs": [],
      "stateMutability": "nonpayable",
      "type": "function"
    },
    {
      "inputs": [
        {
          "internalType": "uint256",
          "name": "id",
          "type": "uint256"
        }
      ],
      "name": "suspendBrand",
      "outputs": [],
      "stateMutability": "nonpayable",
      "type": "function"
    },
    {
      "inputs": [
        {
          "internalType": "address",
          "name": "newOwner",
          "type": "address"
        }
      ],
      "name": "transferOwnership",
      "outputs": [],
      "stateMutability": "nonpayable",
      "type": "function"
    },
    {
      "inputs": [],
      "name": "unpause",
      "outputs": [],
      "stateMutability": "nonpayable",
      "type": "function"
    },
    {
      "inputs": [
        {
          "internalType": "uint256",
          "name": "id",
          "type": "uint256"
        },
        {
          "internalType": "uint256",
          "name": "revenue",
          "type": "uint256"
        }
      ],
      "name": "updateRevenue",
      "outputs": [],
      "stateMutability": "nonpayable",
      "type": "function"
    },
    {
      "inputs": [
        {
          "internalType": "address",
          "name": "",
          "type": "address"
        }
      ],
      "name": "walletToBrandId",
      "outputs": [
        {
          "internalType": "uint256",
          "name": "",
          "type": "uint256"
        }
      ],
      "stateMutability": "view",
      "type": "function"
    }
  ],
  "bytecode": "0x6080806040523461007a5733156100645760008054336001600160a01b03198216811783556040519290916001600160a01b0316907f8be0079c531659141344cd1fd0a4f28419497f9722a3daafe3b4186f6b6457e09080a36112ee90816100808239f35b631e4fbdf760e01b815260006004820152602490fd5b600080fdfe608080604052600436101561001357600080fd5b60003560e01c90816327a7f0b914610f1f575080632aa0e2d514610e965780633c3d7a3714610e395780633f4ba83a14610dc75780635c975abb14610da157806360e8ddb014610c1e578063715018a614610bc5578063811e561b1461054f57806381766239146105155780638456cb591461049e5780638da5cb5b146104755780639aa3491f14610457578063a67e217f146103db578063c3fbcbd61461034d578063e3b231b51461030e578063f0dc6d1414610247578063f2fde38b146101b95763fdcb5732146100e557600080fd5b346101b45760203660031901126101b45760043560005260026020526101636040600020610112816110ec565b9061011f600182016110ec565b61012b600283016110ec565b9160038101549261019f61017f60048401549261017160ff6006600588015497015416966040519a8b9a610100808d528c0190610f5e565b908a820360208c0152610f5e565b9088820360408a0152610f5e565b6001600160a01b038616606088015294608087019060a01c60ff16610f9e565b60a085015260c0840152151560e08301520390f35b600080fd5b346101b45760203660031901126101b4576101d261105d565b6101da611192565b6001600160a01b0390811690811561022e57600054826bffffffffffffffffffffffff60a01b821617600055167f8be0079c531659141344cd1fd0a4f28419497f9722a3daafe3b4186f6b6457e0600080a3005b604051631e4fbdf760e01b815260006004820152602490fd5b346101b45760203660031901126101b457610260611236565b50600435600052600260205261030a604060002060ff600660405192610285846110ad565b61028e816110ec565b845261029c600182016110ec565b60208501526102ad600282016110ec565b604085015260038101546001600160a01b03811660608601526102d89060a01c84166080860161122a565b600481015460a0850152600581015460c0850152015416151560e0820152604051918291602083526020830190610fab565b0390f35b346101b45760203660031901126101b4576001600160a01b0361032f61105d565b166000526004602052602060ff604060002054166040519015158152f35b346101b45760203660031901126101b457600435610369611192565b6000818152600260209081526040808320600301805460ff60a01b198116600160a01b179091556001600160a01b031683526004825291829020805460ff1916600190811790915591519182527f276b6ea0a9acadf2528c4d94a9045e3effed8b60d3d19e0b240fff8cf3bb329291a2005b346101b45760403660031901126101b457600435602435801515908181036101b4577f948640c0b84613e87b76961057420b5e3e2a1747d41f0ba964d90c4534e2b1cf9161044e60209261042d611192565b856000526002845260066040600020019060ff801983541691151516179055565b604051908152a2005b346101b45760003660031901126101b4576020600154604051908152f35b346101b45760003660031901126101b4576000546040516001600160a01b039091168152602090f35b346101b45760003660031901126101b4576104b7611192565b60005460ff8160a01c166105035760ff60a01b1916600160a01b176000556040513381527f62e78cea01bee320cd4e420270b5ea74000d11b0c9f74754ebdbfc544b05a25890602090a1005b60405163d93c066560e01b8152600490fd5b346101b45760203660031901126101b4576001600160a01b0361053661105d565b1660005260036020526020604060002054604051908152f35b346101b45760803660031901126101b45760043567ffffffffffffffff81116101b45761058090369060040161102f565b60243567ffffffffffffffff81116101b4576105a090369060040161102f565b92909160443567ffffffffffffffff81116101b4576105c390369060040161102f565b60643592916001600160a01b03841684036101b4576105e0611192565b8215610b93576001600160a01b03841615610b5f576001600160a01b03841660009081526004602052604090205460ff16610b25576106599161064d60015497610629896111be565b600155604051996106398b6110ad565b61064436888b6111e3565b8b5236916111e3565b602089015236916111e3565b604086015260018060a01b0382166060860152600060808601524260a0860152600060c0860152600060e0860152836000526002602052604060002094805180519067ffffffffffffffff82116109835781906106b68954611073565b601f8111610ad5575b50602090601f8311600114610a6f57600092610a64575b50508160011b916000199060031b1c19161786555b602081015180519067ffffffffffffffff821161098357819061071160018a0154611073565b601f8111610a11575b50602090601f83116001146109a457600092610999575b50508160011b916000199060031b1c19161760018701555b604081015180519067ffffffffffffffff821161098357819061076f60028a0154611073565b601f8111610930575b50602090601f83116001146108c3576000926108b8575b50508160011b916000199060031b1c19161760028701555b606081015160038701805460808401516001600160a01b039093169692959060048710156108a257602099600660e0606097899661084d958e9d7f31c1734191fd6d29ea7e1a6aa6a29f3a9bc34243d9b9d7df8d35b20c645df0389d60ff60a01b9060a01b16916affffffffffffffffffffff60a81b161717905560a0810151600485015560c081015160058501550151151591019060ff801983541691151516179055565b60018060a01b0381166000526003895286604060002055604051948593604085528160408601528585013760008383018501526001600160a01b031688830152601f01601f19168101030190a2604051908152f35b634e487b7160e01b600052602160045260246000fd5b01519050888061078f565b60028a016000908152602081209350601f198516905b81811061091857509084600195949392106108ff575b505050811b0160028701556107a7565b015160001960f88460031b161c191690558880806108ef565b929360206001819287860151815501950193016108d9565b909150600289016000526020600020601f840160051c81016020851061097c575b90849392915b601f830160051c8201811061096d575050610778565b60008155859450600101610957565b5080610951565b634e487b7160e01b600052604160045260246000fd5b015190508880610731565b60018a016000908152602081209350601f198516905b8181106109f957509084600195949392106109e0575b505050811b016001870155610749565b015160001960f88460031b161c191690558880806109d0565b929360206001819287860151815501950193016109ba565b909150600189016000526020600020601f840160051c810160208510610a5d575b90849392915b601f830160051c82018110610a4e57505061071a565b60008155859450600101610a38565b5080610a32565b0151905088806106d6565b60008a8152602081209350601f198516905b818110610abd5750908460019594939210610aa4575b505050811b0186556106eb565b015160001960f88460031b161c19169055888080610a97565b92936020600181928786015181550195019301610a81565b909150886000526020600020601f840160051c810160208510610b1e575b90849392915b601f830160051c82018110610b0f5750506106bf565b60008155859450600101610af9565b5080610af3565b60405162461bcd60e51b8152602060048201526012602482015271105b1c9958591e481c9959da5cdd195c995960721b6044820152606490fd5b60405162461bcd60e51b815260206004820152600c60248201526b5a65726f206164647265737360a01b6044820152606490fd5b60405162461bcd60e51b815260206004820152600a602482015269456d707479206e616d6560b01b6044820152606490fd5b346101b45760003660031901126101b457610bde611192565b600080546001600160a01b0319811682556001600160a01b03167f8be0079c531659141344cd1fd0a4f28419497f9722a3daafe3b4186f6b6457e08280a3005b346101b45760003660031901126101b45760018054610c3c81611276565b90610c4a60405192836110ca565b808252601f19610c5982611276565b0160005b818110610d8a57505060005b818110610cd3578284604051906020808301818452845180915260408401918060408360051b8701019601926000905b838210610ca65786880387f35b90919293948380610cc2839a603f198b82030186528951610fab565b999701959493919091019101610c99565b80610d85916000526002602090808252610d1a60406000209160405193610cf9856110ad565b610d02846110ec565b8552610d0f8a85016110ec565b9085015282016110ec565b604083015260038101546001600160a01b038116606084015260ff9160069160a090610d4d90821c85166080870161122a565b600482015490850152600581015460c0850152015416151560e0820152610d74828661128e565b52610d7f818561128e565b506111be565b610c69565b602090610d95611236565b82828701015201610c5d565b346101b45760003660031901126101b457602060ff60005460a01c166040519015158152f35b346101b45760003660031901126101b457610de0611192565b60005460ff8160a01c1615610e275760ff60a01b19166000556040513381527f5db9ee0a495bf2e6ff9c91a7834c1ba4fdd244a5e8aa4e537bd38aeae4b073aa90602090a1005b604051638dfc202b60e01b8152600490fd5b346101b45760403660031901126101b4576004357fe6ca07236b1384647f229bb9ce34a7c47aefe101375a0034a5bc8b4db55a2db66020602435610e7b611192565b836000526002825280600560406000200155604051908152a2005b346101b45760203660031901126101b457600435610eb2611192565b6000818152600260208181526040808420600301805460ff60a01b198116600160a11b179091556001600160a01b031684526004825292839020805460ff1916905591519081527f276b6ea0a9acadf2528c4d94a9045e3effed8b60d3d19e0b240fff8cf3bb32929190a2005b346101b45760203660031901126101b457600435600052600260205260ff60036040600020015460a01c169060048210156108a2576001602092148152f35b919082519283825260005b848110610f8a575050826000602080949584010152601f8019910116010190565b602081830181015184830182015201610f69565b9060048210156108a25752565b9060e080610fec610fda610fc88651610100808852870190610f5e565b60208701518682036020880152610f5e565b60408601518582036040870152610f5e565b9360018060a01b03606082015116606085015261101160808201516080860190610f9e565b60a081015160a085015260c081015160c08501520151151591015290565b9181601f840112156101b45782359167ffffffffffffffff83116101b457602083818601950101116101b457565b600435906001600160a01b03821682036101b457565b90600182811c921680156110a3575b602083101461108d57565b634e487b7160e01b600052602260045260246000fd5b91607f1691611082565b610100810190811067ffffffffffffffff82111761098357604052565b90601f8019910116810190811067ffffffffffffffff82111761098357604052565b906040519182600082549261110084611073565b90818452600194858116908160001461116f575060011461112c575b505061112a925003836110ca565b565b9093915060005260209081600020936000915b81831061115757505061112a9350820101388061111c565b8554888401850152948501948794509183019161113f565b91505061112a94506020925060ff191682840152151560051b820101388061111c565b6000546001600160a01b031633036111a657565b60405163118cdaa760e01b8152336004820152602490fd5b60001981146111cd5760010190565b634e487b7160e01b600052601160045260246000fd5b92919267ffffffffffffffff8211610983576040519161120d601f8201601f1916602001846110ca565b8294818452818301116101b4578281602093846000960137010152565b60048210156108a25752565b60405190611243826110ad565b600060e0836060815260606020820152606060408201528260608201528260808201528260a08201528260c08201520152565b67ffffffffffffffff81116109835760051b60200190565b80518210156112a25760209160051b010190565b634e487b7160e01b600052603260045260246000fdfea2646970667358221220390132dfd0e42b4b6a1afabb77b06a29d4ea6266b7608e572f3928953fc7165164736f6c63430008140033",
  "linkReferences": {},
  "deployedLinkReferences": {}
}