{
  "_format": "hh-sol-artifact-1",
  "contractName": "RWBOMarketplace",
  "sourceName": "contracts/RWBOMarketplace.sol",
  "abi": [
    {
      "inputs": [
        {
          "internalType": "address",
          "name": "_luxfiToken",
          "type": "address"
        },
        {
          "internalType": "address",
          "name": "_feeRecipient",
          "type": "address"
        }
      ],
      "stateMutability": "nonpayable",
      "type": "constructor"
    },
    {
      "inputs": [],
      "name": "EnforcedPause",
      "type": "error"
    },
    {
      "inputs": [],
      "name": "ExpectedPause",
      "type": "error"
    },
    {
      "inputs": [
        {
          "internalType": "address",
          "name": "owner",
          "type": "address"
        }
      ],
      "name": "OwnableInvalidOwner",
      "type": "error"
    },
    {
      "inputs": [
        {
          "internalType": "address",
          "name": "account",
          "type": "address"
        }
      ],
      "name": "OwnableUnauthorizedAccount",
      "type": "error"
    },
    {
      "inputs": [],
      "name": "ReentrancyGuardReentrantCall",
      "type": "error"
    },
    {
      "anonymous": false,
      "inputs": [
        {
          "indexed": false,
          "internalType": "uint256",
          "name": "newFeeBps",
          "type": "uint256"
        }
      ],
      "name": "FeeUpdated",
      "type": "event"
    },
    {
      "anonymous": false,
      "inputs": [
        {
          "indexed": true,
          "internalType": "uint256",
          "name": "listingId",
          "type": "uint256"
        },
        {
          "indexed": true,
          "internalType": "address",
          "name": "seller",
          "type": "address"
        },
        {
          "indexed": true,
          "internalType": "uint256",
          "name": "brandId",
          "type": "uint256"
        },
        {
          "indexed": false,
          "internalType": "uint256",
          "name": "amount",
          "type": "uint256"
        },
        {
          "indexed": false,
          "internalType": "uint256",
          "name": "price",
          "type": "uint256"
        }
      ],
      "name": "Listed",
      "type": "event"
    },
    {
      "anonymous": false,
      "inputs": [
        {
          "indexed": true,
          "internalType": "uint256",
          "name": "listingId",
          "type": "uint256"
        },
        {
          "indexed": true,
          "internalType": "address",
          "name": "seller",
          "type": "address"
        }
      ],
      "name": "ListingCancelled",
      "type": "event"
    },
    {
      "anonymous": false,
      "inputs": [
        {
          "indexed": true,
          "internalType": "address",
          "name": "previousOwner",
          "type": "address"
        },
        {
          "indexed": true,
          "internalType": "address",
          "name": "newOwner",
          "type": "address"
        }
      ],
      "name": "OwnershipTransferred",
      "type": "event"
    },
    {
      "anonymous": false,
      "inputs": [
        {
          "indexed": false,
          "internalType": "address",
          "name": "account",
          "type": "address"
        }
      ],
      "name": "Paused",
      "type": "event"
    },
    {
      "anonymous": false,
      "inputs": [
        {
          "indexed": true,
          "internalType": "uint256",
          "name": "listingId",
          "type": "uint256"
        },
        {
          "indexed": true,
          "internalType": "address",
          "name": "buyer",
          "type": "address"
        },
        {
          "indexed": false,
          "internalType": "uint256",
          "name": "amount",
          "type": "uint256"
        },
        {
          "indexed": false,
          "internalType": "uint256",
          "name": "total",
          "type": "uint256"
        }
      ],
      "name": "Purchased",
      "type": "event"
    },
    {
      "anonymous": false,
      "inputs": [
        {
          "indexed": false,
          "internalType": "address",
          "name": "account",
          "type": "address"
        }
      ],
      "name": "Unpaused",
      "type": "event"
    },
    {
      "inputs": [],
      "name": "MAX_FEE_BPS",
      "outputs": [
        {
          "internalType": "uint256",
          "name": "",
          "type": "uint256"
        }
      ],
      "stateMutability": "view",
      "type": "function"
    },
    {
      "inputs": [
        {
          "internalType": "uint256",
          "name": "",
          "type": "uint256"
        },
        {
          "internalType": "uint256",
          "name": "",
          "type": "uint256"
        }
      ],
      "name": "brandListings",
      "outputs": [
        {
          "internalType": "uint256",
          "name": "",
          "type": "uint256"
        }
      ],
      "stateMutability": "view",
      "type": "function"
    },
    {
      "inputs": [
        {
          "internalType": "uint256",
          "name": "listingId",
          "type": "uint256"
        },
        {
          "internalType": "uint256",
          "name": "tokenAmount",
          "type": "uint256"
        }
      ],
      "name": "buyTokens",
      "outputs": [],
      "stateMutability": "payable",
      "type": "function"
    },
    {
      "inputs": [
        {
          "internalType": "uint256",
          "name": "listingId",
          "type": "uint256"
        }
      ],
      "name": "cancelListing",
      "outputs": [],
      "stateMutability": "nonpayable",
      "type": "function"
    },
    {
      "inputs": [],
      "name": "feeRecipient",
      "outputs": [
        {
          "internalType": "address",
          "name": "",
          "type": "address"
        }
      ],
      "stateMutability": "view",
      "type": "function"
    },
    {
      "inputs": [
        {
          "internalType": "uint256",
          "name": "brandId",
          "type": "uint256"
        }
      ],
      "name": "getBrandListings",
      "outputs": [
        {
          "internalType": "uint256[]",
          "name": "",
          "type": "uint256[]"
        }
      ],
      "stateMutability": "view",
      "type": "function"
    },
    {
      "inputs": [
        {
          "internalType": "uint256",
          "name": "listingId",
          "type": "uint256"
        }
      ],
      "name": "getListing",
      "outputs": [
        {
          "components": [
            {
              "internalType": "address",
              "name": "seller",
              "type": "address"
            },
            {
              "internalType": "uint256",
              "name": "brandId",
              "type": "uint256"
            },
            {
              "internalType": "uint256",
              "name": "tokenAmount",
              "type": "uint256"
            },
            {
              "internalType": "uint256",
              "name": "pricePerToken",
              "type": "uint256"
            },
            {
              "internalType": "bool",
              "name": "active",
              "type": "bool"
            },
            {
              "internalType": "uint256",
              "name": "listedAt",
              "type": "uint256"
            }
          ],
          "internalType": "struct RWBOMarketplace.Listing",
          "name": "",
          "type": "tuple"
        }
      ],
      "stateMutability": "view",
      "type": "function"
    },
    {
      "inputs": [
        {
          "internalType": "address",
          "name": "user",
          "type": "address"
        }
      ],
      "name": "getUserListings",
      "outputs": [
        {
          "internalType": "uint256[]",
          "name": "",
          "type": "uint256[]"
        }
      ],
      "stateMutability": "view",
      "type": "function"
    },
    {
      "inputs": [
        {
          "internalType": "uint256",
          "name": "brandId",
          "type": "uint256"
        },
        {
          "internalType": "uint256",
          "name": "tokenAmount",
          "type": "uint256"
        },
        {
          "internalType": "uint256",
          "name": "pricePerToken",
          "type": "uint256"
        }
      ],
      "name": "listTokens",
      "outputs": [
        {
          "internalType": "uint256",
          "name": "",
          "type": "uint256"
        }
      ],
      "stateMutability": "nonpayable",
      "type": "function"
    },
    {
      "inputs": [],
      "name": "listingCount",
      "outputs": [
        {
          "internalType": "uint256",
          "name": "",
          "type": "uint256"
        }
      ],
      "stateMutability": "view",
      "type": "function"
    },
    {
      "inputs": [
        {
          "internalType": "uint256",
          "name": "",
          "type": "uint256"
        }
      ],
      "name": "listings",
      "outputs": [
        {
          "internalType": "address",
          "name": "seller",
          "type": "address"
        },
        {
          "internalType": "uint256",
          "name": "brandId",
          "type": "uint256"
        },
        {
          "internalType": "uint256",
          "name": "tokenAmount",
          "type": "uint256"
        },
        {
          "internalType": "uint256",
          "name": "pricePerToken",
          "type": "uint256"
        },
        {
          "internalType": "bool",
          "name": "active",
          "type": "bool"
        },
        {
          "internalType": "uint256",
          "name": "listedAt",
          "type": "uint256"
        }
      ],
      "stateMutability": "view",
      "type": "function"
    },
    {
      "inputs": [],
      "name": "luxfiToken",
      "outputs": [
        {
          "internalType": "contract IERC20",
          "name": "",
          "type": "address"
        }
      ],
      "stateMutability": "view",
      "type": "function"
    },
    {
      "inputs": [],
      "name": "owner",
      "outputs": [
        {
          "internalType": "address",
          "name": "",
          "type": "address"
        }
      ],
      "stateMutability": "view",
      "type": "function"
    },
    {
      "inputs": [],
      "name": "pause",
      "outputs": [],
      "stateMutability": "nonpayable",
      "type": "function"
    },
    {
      "inputs": [],
      "name": "paused",
      "outputs": [
        {
          "internalType": "bool",
          "name": "",
          "type": "bool"
        }
      ],
      "stateMutability": "view",
      "type": "function"
    },
    {
      "inputs": [],
      "name": "platformFeeBps",
      "outputs": [
        {
          "internalType": "uint256",
          "name": "",
          "type": "uint256"
        }
      ],
      "stateMutability": "view",
      "type": "function"
    },
    {
      "inputs": [],
      "name": "renounceOwnership",
      "outputs": [],
      "stateMutability": "nonpayable",
      "type": "function"
    },
    {
      "inputs": [
        {
          "internalType": "uint256",
          "name": "feeBps",
          "type": "uint256"
        }
      ],
      "name": "setFee",
      "outputs": [],
      "stateMutability": "nonpayable",
      "type": "function"
    },
    {
      "inputs": [
        {
          "internalType": "address",
          "name": "_feeRecipient",
          "type": "address"
        }
      ],
      "name": "setFeeRecipient",
      "outputs": [],
      "stateMutability": "nonpayable",
      "type": "function"
    },
    {
      "inputs": [
        {
          "internalType": "address",
          "name": "newOwner",
          "type": "address"
        }
      ],
      "name": "transferOwnership",
      "outputs": [],
      "stateMutability": "nonpayable",
      "type": "function"
    },
    {
      "inputs": [],
      "name": "unpause",
      "outputs": [],
      "stateMutability": "nonpayable",
      "type": "function"
    },
    {
      "inputs": [
        {
          "internalType": "address",
          "name": "",
          "type": "address"
        },
        {
          "internalType": "uint256",
          "name": "",
          "type": "uint256"
        }
      ],
      "name": "userListings",
      "outputs": [
        {
          "internalType": "uint256",
          "name": "",
          "type": "uint256"
        }
      ],
      "stateMutability": "view",
      "type": "function"
    }
  ],
  "bytecode": "0x60803461010b57601f61126938819003918201601f19168301916001600160401b0383118484101761011057808492604094855283398101031261010b57610052602061004b83610126565b9201610126565b33156100f25760008054336001600160a01b0319808316821784556040519590946001600160a01b03949093859391908416907f8be0079c531659141344cd1fd0a4f28419497f9722a3daafe3b4186f6b6457e09080a360017f9b779b17422d0df92223018b32b4d1fa46e071723d6817e2486d003becc55f005560fa600355168360015416176001551690600454161760045561112e908161013b8239f35b604051631e4fbdf760e01b815260006004820152602490fd5b600080fd5b634e487b7160e01b600052604160045260246000fd5b51906001600160a01b038216820361010b5756fe6080604081815260048036101561001557600080fd5b600092833560e01c908163107a274a14610d2c5750806322dcd13e14610d0d578063305a67a814610ba65780633f4ba83a14610b395780634690484014610b12578063508cc2bc14610adf5780635c975abb14610aba57806369fe0e2d14610a30578063715018a6146109d65780637975ce28146106eb5780638456cb591461068c57806386cfa7d3146106335780638da5cb5b1461060b578063a9b07c26146105ec578063adc0ea63146105c3578063d55be8c6146105a6578063dd98ebb61461036d578063de74e57b14610303578063e74b981b1461028c578063e9303ae614610224578063eb18a9d81461019e5763f2fde38b1461011557600080fd5b3461019a57602036600319011261019a5761012e610e3f565b90610137610e90565b6001600160a01b0391821692831561018457505082546001600160a01b0319811683178455167f8be0079c531659141344cd1fd0a4f28419497f9722a3daafe3b4186f6b6457e08380a380f35b51631e4fbdf760e01b8152908101849052602490fd5b8280fd5b505034610220576020908160031936011261019a576001600160a01b036101c3610e3f565b168352600682528083209281518093808654928381520195835280832092905b8282106102095761020586866101fb828b0383610f28565b5191829182610e55565b0390f35b8354875295860195600193840193909101906101e3565b5080fd5b50903461019a576020918260031936011261028857358352600782528083209281518093808654928381520195835280832092905b8282106102715761020586866101fb828b0383610f28565b835487529586019560019384019390910190610259565b8380fd5b50903461019a57602036600319011261019a576102a7610e3f565b6102af610e90565b6001600160a01b03169081156102d2575081546001600160a01b03191617905580f35b5162461bcd60e51b8152602081840152600c60248201526b5a65726f206164647265737360a01b6044820152606490fd5b50903461019a57602036600319011261019a578060c0938335815260056020522060018060a01b0381541692600182015492600283015490600560ff60038601549486015416940154948151968752602087015285015260608401521515608083015260a0820152f35b50903461019a57606036600319011261019a578135602435604435610390610f9c565b610398610fbd565b6103a3821515610ebc565b8015610576578560018060a01b039586600154168651906323b872dd60e01b825233838301523060248301528560448301528160648160209c8d945af190811561056c57839161053f575b501561050a576002549660001988146104f7576104b092889260058b8a946001870160025585519361041f85610ef6565b3385528285018c81528786018c815260608701918c83526080880194600186528760a08a01974289528d8c52528a8a209851166bffffffffffffffffffffffff60a01b89541617885551600188015551600287015551600386015584019051151560ff801983541691161790555191015533815260068a526104a383838320610f62565b86815260078a5220610f62565b835191825285820152837fd0e2632082726e989c9a9cac6d495b05080e0d6836ee21e07618b32d5719a404843393a460016000805160206110d98339815191525551908152f35b634e487b7160e01b835260118252602483fd5b855162461bcd60e51b8152908101889052600f60248201526e151c985b9cd9995c8819985a5b1959608a1b6044820152606490fd5b61055f9150893d8b11610565575b6105578183610f28565b810190610f4a565b386103ee565b503d61054d565b87513d85823e3d90fd5b835162461bcd60e51b8152602081870152600a6024820152695a65726f20707269636560b01b6044820152606490fd5b505034610220578160031936011261022057602090516103e88152f35b50503461022057816003193601126102205760015490516001600160a01b039091168152602090f35b5050346102205781600319360112610220576020906002549051908152f35b505034610220578160031936011261022057905490516001600160a01b039091168152602090f35b50503461022057806003193601126102205761064d610e3f565b6001600160a01b03168252600660205280822080546024359390841015610689575060209261067b91610e11565b91905490519160031b1c8152f35b80fd5b50503461022057816003193601126102205760207f62e78cea01bee320cd4e420270b5ea74000d11b0c9f74754ebdbfc544b05a258916106ca610e90565b6106d2610f9c565b835460ff60a01b1916600160a01b17845551338152a180f35b506106f536610df6565b929091610700610fbd565b610708610f9c565b8285526020600581528286209180830180549361072760ff8616610fed565b610732881515610ebc565b6002810190815492838a116109a15761074f60038301548b611026565b9687341061096b576127106107666003548a611026565b049361077c8c610776878c61104f565b9761104f565b8091551561095e575b505060018060a01b03918a866107cb85600154168d8c5194858094819363a9059cbb60e01b83528d3390840160209093929193604081019460018060a01b031681520152565b03925af1908115610954578c91610937575b50156108fc578a80808093868954165af16107f661105c565b50156108c3578980938193829354165af161080f61105c565b50156108895750907f2d422c18b05e66a0b22c1c2b24e242e6c19cff65d89543692b3348f7f7ea18d49291813411610862575b82519586528501523393a360016000805160206110d98339815191525580f35b61088487808080610873873461104f565b335af161087e61105c565b5061109c565b610842565b60649184519162461bcd60e51b8352820152601660248201527514d95b1b195c881d1c985b9cd9995c8819985a5b195960521b6044820152fd5b865162461bcd60e51b81528085018690526013602482015272119959481d1c985b9cd9995c8819985a5b1959606a1b6044820152606490fd5b875162461bcd60e51b81528086018790526015602482015274151bdad95b881d1c985b9cd9995c8819985a5b1959605a1b6044820152606490fd5b61094e9150873d8911610565576105578183610f28565b386107dd565b89513d8e823e3d90fd5b60ff191690553880610785565b885162461bcd60e51b8152808701889052601060248201526f24b739bab33334b1b4b2b73a1021272160811b6044820152606490fd5b875162461bcd60e51b8152808601879052600f60248201526e45786365656473206c697374696e6760881b6044820152606490fd5b83346106895780600319360112610689576109ef610e90565b80546001600160a01b03198116825581906001600160a01b03167f8be0079c531659141344cd1fd0a4f28419497f9722a3daafe3b4186f6b6457e08280a380f35b50903461019a57602036600319011261019a57813591610a4e610e90565b6103e88311610a895750816020917f8c4d35e54a3f2ef1134138fd8ea3daee6a3c89e10d2665996babdf70261e2c769360035551908152a180f35b6020606492519162461bcd60e51b8352820152600c60248201526b08ccaca40e8dede40d0d2ced60a31b6044820152fd5b50503461022057816003193601126102205760ff6020925460a01c1690519015158152f35b50503461022057610aef36610df6565b929081526007602052818120908154841015610689575060209261067b91610e11565b503461019a578260031936011261019a575490516001600160a01b03909116815260209150f35b503461019a578260031936011261019a57610b52610e90565b82549060ff8260a01c1615610b98575060ff60a01b19168255513381527f5db9ee0a495bf2e6ff9c91a7834c1ba4fdd244a5e8aa4e537bd38aeae4b073aa90602090a180f35b8251638dfc202b60e01b8152fd5b503461019a5760208060031936011261028857813592610bc4610fbd565b8385526005825280852080546001600160a01b03949193919085163381148015610d01575b15610cce579181610c4c93829387018054610c0660ff8216610fed565b60ff191690556001546002880154875163a9059cbb60e01b81526001600160a01b039093169383019384526020840152909485929189169183918c918391604090910190565b03925af1928315610cc5575090610c6c92918792610ca8575b505061109c565b5416907f8e25282255ab31897df2b0456bb993ac7f84d376861aefd84901d2d63a7428a28380a360016000805160206110d98339815191525580f35b610cbe9250803d10610565576105578183610f28565b3880610c65565b513d88823e3d90fd5b50915162461bcd60e51b815291820152600e60248201526d139bdd08185d5d1a1bdc9a5e995960921b6044820152606490fd5b50858854163314610be9565b5050346102205781600319360112610220576020906003549051908152f35b905034610288576020366003190112610288578360c09460a083610d508795610ef6565b8281528260208201528285820152826060820152826080820152015282358152600560205220825191610d8283610ef6565b60018060a01b038254169384845260018301546020850190815260028401549082860191825260a0600560ff60038801549660608a019788528801541696608089019715158852015496019586528251968752516020870152519085015251606084015251151560808301525160a0820152f35b6040906003190112610e0c576004359060243590565b600080fd5b8054821015610e295760005260206000200190600090565b634e487b7160e01b600052603260045260246000fd5b600435906001600160a01b0382168203610e0c57565b6020908160408183019282815285518094520193019160005b828110610e7c575050505090565b835185529381019392810192600101610e6e565b6000546001600160a01b03163303610ea457565b60405163118cdaa760e01b8152336004820152602490fd5b15610ec357565b60405162461bcd60e51b815260206004820152600b60248201526a16995c9bc8185b5bdd5b9d60aa1b6044820152606490fd5b60c0810190811067ffffffffffffffff821117610f1257604052565b634e487b7160e01b600052604160045260246000fd5b90601f8019910116810190811067ffffffffffffffff821117610f1257604052565b90816020910312610e0c57518015158103610e0c5790565b805468010000000000000000811015610f1257610f8491600182018155610e11565b819291549060031b91821b91600019901b1916179055565b60ff60005460a01c16610fab57565b60405163d93c066560e01b8152600490fd5b6000805160206110d98339815191526002815414610fdb5760029055565b604051633ee5aeb560e01b8152600490fd5b15610ff457565b60405162461bcd60e51b815260206004820152600a6024820152694e6f742061637469766560b01b6044820152606490fd5b8181029291811591840414171561103957565b634e487b7160e01b600052601160045260246000fd5b9190820391821161103957565b3d15611097573d9067ffffffffffffffff8211610f12576040519161108b601f8201601f191660200184610f28565b82523d6000602084013e565b606090565b156110a357565b60405162461bcd60e51b815260206004820152600d60248201526c1499599d5b990819985a5b1959609a1b6044820152606490fdfe9b779b17422d0df92223018b32b4d1fa46e071723d6817e2486d003becc55f00a26469706673582212201239d562ad2d76c6eef3e4e0315f427027ddc5670a17902fc50c399469d0579564736f6c63430008140033",
  "linkReferences": {},
  "deployedLinkReferences": {}
}